:100000000C9463000C94B8060C94E5060C948B00D9
:100010000C948B000C948B000C948B000C948B0034
:100020000C948B000C948B000C948B000C948B0024
:100030000C948B000C948B000C948B000C948B0014
:100040000C9412070C948B000C948B000C948B0076
:100050000C948B000C948B000C948B000C948B00F4
:100060000C9474040C948B00000000080002010042
:100070000003040700000000000000000102040863
:100080001020408001020408102001020408102002
:10009000040404040404040402020202020203032E
:1000A00003030303000000002300260029000000D2
:1000B0000000250028002B0000000000240027007D
:1000C0002A00D603D00511241FBECFEFD8E0DEBF33
:1000D000CDBF11E0A0E0B1E0EEE9F9E102C005908A
:1000E0000D92AC34B107D9F722E0ACE4B1E001C025
:1000F0001D92A333B207E1F710E0C6ECD0E004C0D4
:100100002297FE010E94500CC23CD107C9F70E9401
:10011000CD080C94CD0C0C940000FC0112828FEFE2
:100120008183108213820895FC018381882331F03A
:10013000611103C08FEF81830895118208958CE4CB
:1001400091E00E94B6038CE491E00E94D30391E019
:10015000811190E0892F0895CF93DF93EC016A839A
:100160008CE491E00E94AC036A81CE010E949F0062
:100170008B83882329F08CE491E00E941D038883FF
:100180008B8190E0DF91CF910895CF93DF93EC01C5
:100190008B818823A9F089818095862388836A8151
:1001A0008CE491E00E94B60368818CE491E00E94A7
:1001B0006D038CE491E00E94D303282F30E002C04D
:1001C00020E030E081E090E0232B11F080E090E02F
:1001D000DF91CF91089508950895DC01ED91FC9190
:1001E0000284F385E02D41E0099581E090E00895D7
:1001F000FC011382128229E031E0318320830895CB
:10020000DC01ED91FC910084F185E02D6FEF099404
:10021000DC01ED91FC910284F385E02D40E009942E
:1002200061E00E94080180ED97E00C94A70762E06E
:100230000E94080180ED97E00C94A707CF93DF930D
:10024000CDB7DEB728970FB6F894DEBF0FBECDBF8F
:100250001D8220E42E8334E13F8334E53887198200
:100260002A8320E12B8320E52C83FC012781421780
:1002700010F04FEF420FFC01308550E0FE01E40F1B
:10028000F51F303121F4243011F4218101C0258182
:10029000260F2068622F28960FB6F894DEBF0FBE97
:1002A000CDBFDF91CF910C940801FC016581262F11
:1002B000246025836C600C940801CF93DF93EC01DC
:1002C000423018F08C8188608C834F8368872223AA
:1002D00029F0413019F48C8184608C8364E670E0ED
:1002E00080E090E00E947F076C8164FD31C0E8816E
:1002F000F9810284F385E02D42E063E0CE010995A7
:1003000084E991E10E94A707E881F9810284F385DD
:10031000E02D42E063E0CE01099586E990E00E947D
:10032000A707E881F9810284F385E02D42E063E0CC
:10033000CE01099586E990E00E94A707E881F9813E
:100340000284F385E02D42E062E0CE01099516C0FB
:100350006062CE010E94080184E991E10E94A70732
:100360006C816062CE010E94080186E990E00E94E3
:10037000A7076C816062CE010E94080186E990E0C7
:100380000E94A7076C816062CE010E9408018CE385
:1003900090E00E94A70784E08D83CE010E94550162
:1003A000CE010E94100182E08E8366E0CE010E94A1
:1003B0000801CE01DF91CF910C94000121E001C032
:1003C000220F6A95EAF7DC011C962C931C971A966B
:1003D0005C934E931997ED91FC910084F185E02D8B
:1003E00060E00994FC012485222399F0818592859F
:1003F000009719F4611105C006C0019721F461113D
:1004000002C0258701C015866585CF010E960C9424
:10041000C50008950F931F93CF93DF93EC018C01D8
:10042000025F1F4F6B85C8010E94AC00019761F409
:1004300061E0C8010E9494001C8260E0C8010E9433
:10044000C50081E090E002C080E090E0DF91CF91B4
:100450001F910F9108958F92AF92CF92EF920F93C9
:10046000CF93DF93CDB7DEB7FC0163871486158683
:100470001286118681E0982F01C0990F4A95EAF7FC
:10048000928B982F01C0990F2A95EAF7938B982F9A
:1004900001C0990F0A95EAF7948B982F01C0990F24
:1004A000EA94EAF7958B982F01C0990FCA94EAF75E
:1004B000968B982F01C0990FAA94EAF7978B01C0E9
:1004C000880F8A94EAF7808FDF91CF910F91EF9098
:1004D000CF90AF908F9008954F925F926F927F92DE
:1004E0008F92AF92CF92EF920F931F93CF93DF93A0
:1004F00000D01F92CDB7DEB73C011A894B885C88CB
:100500002B834A8369830E94F80089E191E0F3011B
:1005100091838083C3010E960E948D002B814A81B6
:100520006981C3010E942B02A201612FC3010F90B8
:100530000F900F90DF91CF911F910F91EF90CF907F
:10054000AF908F907F906F905F904F900C94DE01F2
:10055000FF920F931F93CF93DF93EC01F62E8C0144
:10056000025F1F4F6A896F29C8010E94C5006A890E
:1005700060956F21C801DF91CF911F910F91FF907E
:100580000C94C50020E030E050E060FF05C0FC01A5
:10059000E20FF31F7589572B66952F5F3F4F24306D
:1005A000310599F7413011F4FC014489FC0165855E
:1005B000652B642B0C94A8020F931F93CF93DF93AA
:1005C000EC01142F062F0F70423011F440E00AC0E6
:1005D00070E084E0759567958A95E1F7CE010E94F9
:1005E000C202412F602FCE01DF91CF911F910F9159
:1005F0000C94C2020F931F93CF93DF9300D01F92EE
:10060000CDB7DEB78C012B834A8369830E940A022F
:100610002B814A816981C8010F900F900F90DF9163
:10062000CF911F910F910C945D0180917C0190E01E
:1006300020917D01821B9109089520917D01809177
:100640007C01281750F4E22FF0E0E258FE4F808141
:1006500090E02F5F20937D0108958FEF9FEF089525
:10066000E0917D0180917C01E81730F4F0E0E258E0
:10067000FE4F808190E008958FEF9FEF08950895D9
:10068000CF92DF92EF92FF920F931F93CF93DF935E
:100690007C01CB018A0120915801222389F0EB01D2
:1006A0006B01C40ED51ECC15DD0569F06991D7012B
:1006B000ED91FC910190F081E02DC7010995F3CFF8
:1006C000642F0E944B04C801DF91CF911F910F91BD
:1006D000FF90EF90DF90CF900895CF93DF931F921C
:1006E000CDB7DEB76983209158012223D1F0209144
:1006F0005901203240F021E030E0FC0133832283B5
:1007000080E090E015C080915A01E82FF0E0E55AB2
:10071000FE4F998190838F5F80935A018093590196
:1007200005C061E0CE0101960E944B0481E090E09B
:100730000F90DF91CF910895FC011382128248EE51
:1007400053E060E070E0448355836683778389E2F9
:1007500091E091838083089510927D0110927C0135
:1007600010925A01109259010C94DA0381E080939F
:10077000580160937B0110925A011092590108951B
:100780000F93062F21E0409159016BE571E08091B4
:100790007B010E94F80310925A01109259011092A5
:1007A00058010F91089561E00C94C0038CE491E02E
:1007B0000C949C0310920B0281E08093090210922A
:1007C000080261E082E10E946B0861E083E10E941F
:1007D0006B08E9EBF0E080818E7F808380818D7FE4
:1007E000808388E48093B80085E48093BC000895FA
:1007F0000F93413208F046C090910B029111FCCF4B
:1008000092E090930B02009309029FEF90939E0158
:100810001092E3014093E201FB0164EE71E0DB0121
:100820009A2F961B941718F491919D93F9CF1092DB
:100830000A0290910A02880F892B80930A02809104
:100840000802813041F41092080280910A028093DC
:10085000BB0085EC01C085EE8093BC00222321F013
:1008600080910B028230E1F380919E018F3F61F015
:1008700080919E01803251F080919E01803341F43D
:1008800083E007C081E005C080E003C082E001C0D2
:1008900084E00F910895613298F420910B02243086
:1008A00089F46093C001FC0182EC91E0DC012A2F05
:1008B000281B261718F421912D93F9CF80E0089575
:1008C00081E0089582E0089585ED8093BC008091D9
:1008D000BC0084FDFCCF10920B02089585EC809340
:1008E000BC0010920B0208951F920F920FB60F9248
:1008F00011242F933F934F935F936F937F938F9325
:100900009F93AF93BF93EF93FF938091B900887F3C
:10091000803609F49CC068F5883209F45BC090F415
:10092000803109F454C038F4882309F4F5C08830C4
:1009300009F44DC0F5C0883109F44CC0803209F487
:100940005DC0EEC0803409F468C048F4803309F417
:1009500055C0883309F0E4C080939E01A8C080355B
:1009600009F44FC0883509F45DC0883409F0D8C057
:10097000D5C0883909F4C6C0A8F4883709F467C01F
:1009800038F4883609F463C0803709F460C0C8C001
:10099000883809F4B7C0803909F45FC0803809F09D
:1009A000BFC05BC0803B09F485C038F4803A09F4CD
:1009B00066C0883A09F47EC0B3C0803C09F4A6C082
:1009C000883C09F4A3C0883B09F489C0A9C0809180
:1009D0000A0210C09091E3018091E201981770F52E
:1009E000E091E30181E08E0F8093E301F0E0EC51B0
:1009F000FE4F80818093BB0085EC85C080939E0173
:100A00008DC0E091E30181E08E0F8093E30180913E
:100A1000BB00F0E0EC51FE4F80839091E3018091A8
:100A2000E2016DC0E091E30181E08E0F8093E3016C
:100A30008091BB00F0E0EC51FE4F80838091090271
:100A400081116CC081E08093080284EA60C083E079
:100A500080930B0210929F01CFCF80919F01803233
:100A600008F050C0E0919F0181E08E0F80939F01BC
:100A70008091BB00F0E0E056FE4F8083BDCF8091B7
:100A80009F01803230F4E0919F01F0E0E056FE4F8C
:100A900010820E94640460919F0170E0E091040262
:100AA000F091050280EA91E0099510929F010E9461
:100AB0006E0436C084E080930B021092C101109244
:100AC000C001E0910602F091070209958091C001F2
:100AD000811105C081E08093C0011092C201E091B4
:100AE000C10181E08E0F8093C101F0E0EE53FE4F13
:100AF00080818093BB009091C1018091C0019817C3
:100B000008F47ACF85E88093BC000AC085EC809316
:100B1000BC0010920B0204C010929E010E9464045B
:100B2000FF91EF91BF91AF919F918F917F916F91C5
:100B30005F914F913F912F910F900FBE0F901F909B
:100B4000189581E080930C0208950F931F93CF9323
:100B5000DF938DE092E00E941701C2E0D0E000E157
:100B600010E067E070E080E090E00E94C6098DE050
:100B700092E00E941C090150110999F741E060E0E0
:100B80008DE092E00E941E01219749F764EF71E029
:100B900080E090E0DF91CF911F910F910C947F073F
:100BA0008F92AF92CF92EF920F931F921F9283E09A
:100BB0008F9387E0882E96E0A92E25E0C22E34E0A0
:100BC000E32E00E021E042E067E28DE092E00E9447
:100BD0006C020F900F900F900F91EF90CF90AF900D
:100BE0008F90089562E082E00E9432086AE070E02F
:100BF00080E090E00E947F0742E050E061EA75E00B
:100C000080E00E94980620E042E060E18DE092E002
:100C10000E94FA028DE092E00E9400018DE092E0D5
:100C20000E9417018DE092E00E941701CFE0D0E012
:100C3000C12CD12C76018FE00E94EC07BC018827E3
:100C400077FD8095982F0E94EB0A9B01AC01C701AC
:100C5000B6010E94EC096B017C0161E070E080E06C
:100C600090E00E947F07219731F720E030E040E7D5
:100C700051E4C701B6010E94500A20E030E040E88C
:100C80005AE30E949F0B6B017C0120E030E0A90138
:100C90000E949B0B20E030E040E05FE387FD05C051
:100CA000C701B6010E94EC0904C0C701B6010E9449
:100CB000EB090E94B80A2AE030E0AB01BC018DE0EC
:100CC00092E00E947C0960E28DE092E00E941C09A3
:100CD00080910C0281110CC020E030E040E05FE325
:100CE000C701B6010E949B0B87FF02C060E010C0E5
:100CF00065E471E08DE092E00E941A0982E00E94B2
:100D0000A10821E0892B09F020E020930C0261E08A
:100D100084E00E94320865E371E08DE092E00E9479
:100D20001A0961E070E080E090E00E947F077ACFCE
:100D30008230E8F4E82FF0E0EE0FFF1FEA5DFD4F90
:100D400071836083813041F0809169008C7F842BB6
:100D500080936900E89A089580916900440F551FB7
:100D6000440F551F837F842B80936900E99A08956F
:100D70001F920F920FB60F9211242F933F934F9310
:100D80005F936F937F938F939F93AF93BF93EF93F3
:100D9000FF938091260290912702892B29F0E09100
:100DA0002602F09127020995FF91EF91BF91AF9133
:100DB0009F918F917F916F915F914F913F912F9173
:100DC0000F900FBE0F901F9018951F920F920FB6A5
:100DD0000F9211242F933F934F935F936F937F93C1
:100DE0008F939F93AF93BF93EF93FF9380912802CC
:100DF00090912902892B29F0E0912802F091290293
:100E00000995FF91EF91BF91AF919F918F917F9144
:100E10006F915F914F913F912F910F900FBE0F9067
:100E20001F9018951F920F920FB60F9211242F93B7
:100E30003F938F939F93AF93BF9380912B02909199
:100E40002C02A0912D02B0912E0230912A0223E0B3
:100E5000230F2D3720F40196A11DB11D05C026E8F2
:100E6000230F0296A11DB11D20932A0280932B020D
:100E700090932C02A0932D02B0932E0280912F020A
:100E800090913002A0913102B09132020196A11DE1
:100E9000B11D80932F0290933002A0933102B09342
:100EA0003202BF91AF919F918F913F912F910F90FF
:100EB0000FBE0F901F9018953FB7F89480912F02A6
:100EC00090913002A0913102B091320226B5A89BD8
:100ED00005C02F3F19F00196A11DB11D3FBF662728
:100EE000782F892F9A2F620F711D811D911D42E06D
:100EF000660F771F881F991F4A95D1F70895CF92E3
:100F0000DF92EF92FF92CF93DF936B017C010E94FF
:100F10005C07EB01C114D104E104F10489F00E94E3
:100F2000EA090E945C076C1B7D0B683E734090F3DE
:100F300081E0C81AD108E108F108C851DC4FEACFB6
:100F4000DF91CF91FF90EF90DF90CF9008950197C0
:100F500039F0880F991F880F991F02970197F1F7B1
:100F60000895789484B5826084BD84B5816084BD21
:100F700085B5826085BD85B5816085BDEEE6F0E012
:100F8000808181608083E1E8F0E01082808182606E
:100F90008083808181608083E0E8F0E080818160EF
:100FA0008083E1EBF0E0808184608083E0EBF0E01F
:100FB000808181608083EAE7F0E0808184608083C3
:100FC000808182608083808181608083808180686D
:100FD00080831092C10008958E3008F08E50877083
:100FE0002091040190E4299F90011124822B809389
:100FF0007C0080917A00806480937A0080917A00EE
:1010000086FDFCCF809178002091790090E0922BB2
:101010000895833081F028F4813099F08230A1F076
:1010200008958730A9F08830B9F08430D1F48091E8
:1010300080008F7D03C0809180008F778093800037
:10104000089584B58F7702C084B58F7D84BD0895DF
:101050008091B0008F7703C08091B0008F7D809326
:10106000B0000895CF93DF9390E0FC01E458FF4F68
:101070002491FC01E057FF4F8491882349F190E0CF
:10108000880F991FFC01E854FF4FA591B491825538
:101090009F4FFC01C591D4919FB7611108C0F8948E
:1010A0008C91209582238C93888182230AC06230A0
:1010B00051F4F8948C91322F309583238C9388814E
:1010C000822B888304C0F8948C91822B8C939FBFD1
:1010D000DF91CF9108950F931F93CF93DF931F92CA
:1010E000CDB7DEB7282F30E0F901E859FF4F8491E2
:1010F000F901E458FF4F1491F901E057FF4F0491B3
:101100000023C9F0882321F069830E9409086981BE
:10111000E02FF0E0EE0FFF1FE255FF4FA591B491D5
:101120009FB7F8948C91611103C01095812301C081
:10113000812B8C939FBF0F90DF91CF911F910F91C7
:101140000895CF93DF93282F30E0F901E859FF4F3E
:101150008491F901E458FF4FD491F901E057FF4F12
:10116000C491CC2391F081110E940908EC2FF0E08A
:10117000EE0FFF1FEC55FF4FA591B4912C912D233D
:1011800081E090E021F480E002C080E090E0DF9117
:10119000CF9108950E94C00C08950E94B1070E944B
:1011A000CC080E94F205C0E0D0E00E94A50520977F
:1011B000E1F30E940000F9CFCF92DF92EF92FF920D
:1011C0000F931F93CF93DF936C017A01EB01E60E2F
:1011D000F71E00E010E0CE15DF0561F06991D60141
:1011E000ED91FC910190F081E02DC6010995080F69
:1011F000191FF1CFC801DF91CF911F910F91FF907F
:10120000EF90DF90CF9008956115710581F0DB01BB
:101210000D900020E9F7AD0141505109461B570BD5
:10122000DC01ED91FC910280F381E02D099480E0D6
:1012300090E008950C940409DC01ED91FC9101907B
:10124000F081E02D09948F929F92AF92BF92CF923E
:10125000DF92EF92FF920F931F93CF93DF93CDB75F
:10126000DEB7A1970FB6F894DEBF0FBECDBF7C01ED
:10127000C42EE52FCB01D22E19A221E02D1510F09E
:101280002AE0D22E8E010F5D1F4F8D2C912CA12CA8
:10129000B12C6C2D7E2FA50194010E94020C8C2D87
:1012A000D29E80191124015011098A3014F4805DF6
:1012B00001C0895CF8018083211531054105510584
:1012C00021F0C22EE32FCA01E4CFB801C7010E946A
:1012D0000409A1960FB6F894DEBF0FBECDBFDF9113
:1012E000CF911F910F91FF90EF90DF90CF90BF9023
:1012F000AF909F908F900895CF92DF92EF92FF92E0
:101300000F931F93CF93DF93EC016A017B012115AB
:10131000310579F4E881F9810190F081E02D642FA5
:10132000DF91CF911F910F91FF90EF90DF90CF90C1
:1013300009942A303105E9F477FF1AC06DE20E9462
:101340001C098C0144275527BA014C195D096E0907
:101350007F092AE0CE010E942309800F911FDF91AF
:10136000CF911F910F91FF90EF90DF90CF90089554
:101370002AE0B701A601CE01DF91CF911F910F9115
:10138000FF90EF90DF90CF900C942309CF93DF93E1
:1013900000D000D0CDB7DEB79B01AC01611571055F
:1013A0008105910569F069833A834B835C830E94D0
:1013B000B20C29813A814B815C810E94240C03C0CC
:1013C00060E070E0CB010F900F900F900F90DF91D5
:1013D000CF91089508955058BB27AA270ED071C108
:1013E00062D130F067D120F031F49F3F11F41EF448
:1013F00057C10EF4E095E7FB4DC1E92F73D180F39F
:10140000BA17620773078407950718F071F49EF501
:101410008BC10EF4E0950B2EBA2FA02D0B01B90154
:1014200090010C01CA01A0011124FF27591B99F05A
:10143000593F50F4503E68F11A16F040A22F232F66
:10144000342F4427585FF3CF469537952795A795B6
:10145000F0405395C9F77EF41F16BA0B620B730B5D
:10146000840BBAF09150A1F0FF0FBB1F661F771FCE
:10147000881FC2F70EC0BA0F621F731F841F48F483
:10148000879577956795B795F7959E3F08F0B3CF09
:101490009395880F08F09927EE0F979587950895F3
:1014A0000CD00FC107D140F0FED030F021F45F3FE7
:1014B00019F0F0C0511139C1F3C014D198F3992338
:1014C000C9F35523B1F3951B550BBB27AA27621708
:1014D0007307840738F09F5F5F4F220F331F441F4D
:1014E000AA1FA9F333D00E2E3AF0E0E830D0915085
:1014F0005040E695001CCAF729D0FE2F27D0660F72
:10150000771F881FBB1F261737074807AB07B0E8B0
:1015100009F0BB0B802DBF01FF2793585F4F2AF0C6
:101520009E3F510568F0B6C000C15F3FECF3983EA6
:10153000DCF3869577956795B795F7959F5FC9F723
:10154000880F911D9695879597F90895E1E0660FAC
:10155000771F881FBB1F621773078407BA0720F025
:10156000621B730B840BBA0BEE1F88F7E09508958E
:1015700004D06894B111D9C00895BCD088F09F57A9
:1015800090F0B92F9927B751A0F0D1F0660F771FCF
:10159000881F991F1AF0BA95C9F712C0B13081F0AF
:1015A000C3D0B1E00895C0C0672F782F8827B85FF7
:1015B00039F0B93FCCF3869577956795B395D9F710
:1015C0003EF490958095709561957F4F8F4F9F4F1A
:1015D0000895E89409C097FB3EF490958095709526
:1015E00061957F4F8F4F9F4F9923A9F0F92F96E96F
:1015F000BB279395F695879577956795B795F111E4
:10160000F8CFFAF4BB0F11F460FF1BC06F5F7F4F80
:101610008F4F9F4F16C0882311F096E911C0772392
:1016200021F09EE8872F762F05C0662371F096E89B
:10163000862F70E060E02AF09A95660F771F881F6A
:10164000DAF7880F9695879597F90895990F00080E
:10165000550FAA0BE0E8FEEF16161706E807F90784
:10166000C0F012161306E407F50798F0621B730B1F
:10167000840B950B39F40A2661F0232B242B252BA0
:1016800021F408950A2609F4A140A6958FEF811D43
:10169000811D089597F99F6780E870E060E00895E4
:1016A0009FEF80EC089500240A941616170618067A
:1016B0000906089500240A94121613061406050656
:1016C0000895092E0394000C11F4882352F0BB0FE7
:1016D00040F4BF2B11F460FF04C06F5F7F4F8F4F4A
:1016E0009F4F089557FD9058440F551F59F05F3F85
:1016F00071F04795880F97FB991F61F09F3F79F034
:1017000087950895121613061406551FF2CF4695B5
:10171000F1DF08C0161617061806991FF1CF869537
:101720007105610508940895E894BB27662777271B
:10173000CB0197F908958ADF08F48FEF08950BD055
:10174000C0CFB1DF28F0B6DF18F0952309F0A2CFA3
:10175000A7CF1124EACFC6DFA0F3959FD1F3950F51
:1017600050E0551F629FF001729FBB27F00DB11D25
:10177000639FAA27F00DB11DAA1F649F6627B00DB5
:10178000A11D661F829F2227B00DA11D621F739F9E
:10179000B00DA11D621F839FA00D611D221F749FAC
:1017A0003327A00D611D231F849F600D211D822FF3
:1017B000762F6A2F11249F5750408AF0E1F088233A
:1017C0004AF0EE0FFF1FBB1F661F771F881F915047
:1017D0005040A9F79E3F510570F05CCFA6CF5F3F08
:1017E000ECF3983EDCF3869577956795B795F7957A
:1017F000E7959F5FC1F7FE2B880F911D9695879502
:1018000097F90895A1E21A2EAA1BBB1BFD010DC07A
:10181000AA1FBB1FEE1FFF1FA217B307E407F507A0
:1018200020F0A21BB30BE40BF50B661F771F881F7C
:10183000991F1A9469F760957095809590959B0112
:10184000AC01BD01CF010895052E97FB1EF4009455
:101850000E943B0C57FD07D00E94020C07FC03D0EE
:101860004EF40C943B0C50954095309521953F4F8C
:101870004F4F5F4F089590958095709561957F4F7C
:101880008F4F9F4F08950E94540CA59F900DB49FB9
:10189000900DA49F800D911D11240895EE0FFF1F40
:1018A0000590F491E02D0994A29FB001B39FC0016F
:1018B000A39F700D811D1124911DB29F700D811D7C
:1018C0001124911D08958F929F92AF92BF92CF9253
:1018D000DF92EF92FF92CF93DF93EC0168817981E1
:1018E0008A819B81611571058105910521F464E26E
:1018F00079ED8BE597E02DE133EF41E050E00E9478
:10190000240C49015A019B01AC01A7EAB1E40E94F1
:10191000430C6B017C01ACEEB4EFA50194010E9475
:10192000C80CC60ED71EE81EF91EF7FE06C081E0E1
:10193000C81AD108E10880E8F80AC882D982EA8288
:10194000FB82C701B6019F77DF91CF91FF90EF90A7
:10195000DF90CF90BF90AF909F908F9008950E949E
:10196000630C089580E091E00E94630C08956093F9
:101970000001709301018093020190930301089587
:1019800081E090E0F8940C94CD0CB7FF0C94430CDC
:0E1990000E94430C821B930B0895F894FFCF26
:10199E00010000000100000000ED00DC085D01EB1D
:1019AE0000EC00CA0800000000ED00DC08FA02DEC0
:1019BE0001F201DC02000000006D03400315031D5F
:1019CE000330033F03202020202020202020202031
:0C19DE0020202020005072657373000070
:00000001FF
