:100000000C94F2010C942C2A0C94592A0C941A0288
:100010000C941A020C941A020C941A020C941A02F0
:100020000C941A020C9438060C941A020C941A02BE
:100030000C941A020C94310B0C941A020C941A02B0
:100040000C94862A0C941A020C94932D0C94C52DB2
:100050000C941A020C941A020C941A020C941A02B0
:100060000C94B70C0C941A02005EBCE2613FDD8375
:10007000C29C7E20A3FD1F419DC3217FFCA2401E88
:100080005F01E3BD3E6082DC237D9FC1421CFEA078
:10009000E1BF5D0380DE3C62BEE0025CDF81633D68
:1000A0007C22C09E1D43A1FF4618FAA427799BC558
:1000B00084DA3866E5BB5907DB856739BAE4065848
:1000C0001947A5FB7826C49A653BD987045AB8E638
:1000D000A7F91B45C6987A24F8A6441A99C7257B28
:1000E0003A6486D85B05E7B98CD2306EEDB3510F18
:1000F0004E10F2AC2F7193CD114FADF3702ECC9208
:10010000D38D6F31B2EC0E50AFF1134DCE90722CF7
:100110006D33D18F0C52B0EE326C8ED0530DEFB1E7
:10012000F0AE4C1291CF2D73CA947628ABF51749D7
:100130000856B4EA6937D58B5709EBB536688AD4C7
:1001400095CB2977F4AA4816E9B7550B88D6346AB7
:100150002B7597C94A14F6A8742AC896154BA9F7A7
:10016000B6E80A54D7896B35497320426C6F636BCC
:10017000696E673F2020202000536574706F696EA0
:1001800074202020202020202000544320456E6130
:10019000626C65643F20004F666620002020546535
:1001A0006D70657261747572652020004F666620FF
:1001B000004F6E2000206F662036300053616D7056
:1001C0006C652046696C6C004D5354204C4C4320A8
:1001D000323031360050495420312E312E32300029
:1001E000202020202020202020202020202020200F
:1001F000004D617463682074203C20736574202076
:1002000020002020596573202020202020204E6FC0
:100210002020002020202020202052756E20202029
:10022000202020002053746F7020202020202020C8
:1002300052756E20002053746F70202020202050B3
:10024000617573652000001F1F1F1F1F0000000A3B
:100250000A0A0A0A000010181C18100702021018D7
:100260001C181007020707121A1C18170207000EA5
:10027000040400001F00040E1F000E040400000E02
:100280000404001F0E040000000800020100000327
:100290000407000000000000000001020408102014
:1002A0004080010204081020010204081020040408
:1002B000040404040404020202020202030303030E
:1002C00003030000000023002600290000000000B6
:1002D000250028002B0000000000240027002A0031
:1002E00000407A10F35A00A0724E18090010A5D4ED
:1002F000E80000E87648170000E40B54020000CA4A
:100300009A3B000000E1F50500008096980000008F
:1003100040420F000000A0860100000010270000EE
:100320000000E803000000006400000000000A0074
:10033000000000000100000000002C76D888DC6777
:100340004F0823DFC1DFAE59E1B1B796E5E3E453CF
:10035000C63AE651997696E8E6C28426EB898C9BEC
:1003600062ED407C6FFCEFBC9C9F40F2BAA56FA58C
:10037000F490055A2AF75C936B6CF9676DC11BFC0E
:10038000E0E40D47FEF520E6B500D0ED902E030029
:10039000943577050080841E080000204E0A000076
:1003A00000C80C333333330F986E12831141EF8D35
:1003B0002114893BE65516CFFEE6DB18D1844B3875
:1003C0001BF77C1D901DA4BBE424203284725E22A6
:1003D0008100C9F124ECA1E53D27190CF725CE29B0
:1003E000F52DEB2911241FBECFEFD8E0DEBFCDBF26
:1003F00011E0A0E0B1E0E4E1F6E702C005900D9263
:10040000AC3AB107D9F726E0ACEAB1E001C01D92E1
:10041000AC3EB207E1F713E0C2EED3E004C022978E
:10042000FE010E94E235CA3DD107C9F70E94392E6C
:100430000C94FD3A0C9400000895FC018CE192E0CC
:10044000928B818B768365831482108289E081830D
:1004500081E0828383830895FC0184810895CF9392
:10046000DF93EB0167E0CE010E94240B91E02F8126
:10047000821390E0892FDF91CF910895EF92FF9240
:100480000F931F93CF93DF93EC018B01E42E8D81AB
:100490009E810E94520AF12C41E0B8018D819E811B
:1004A0000E94870A882359F0FE1006C0B801CE01C9
:1004B0000E942F02811104C0F394EF1468F780E0CA
:1004C000DF91CF911F910F91FF90EF900895CF9200
:1004D000DF92EF92FF920F931F93CF93DF9300D0A1
:1004E000CDB7DEB76C01F42EE52EFC018581968137
:1004F00069837A830E942B0969817A81882311F1AB
:10050000F601858196810E94260A40E06EEBF60195
:10051000858196810E94C8090F2D1E2D89E0F82E35
:10052000F601858196810E940A0AF80181938F0164
:10053000FA94B1F7F601858196810E942B0991E02A
:10054000813009F090E0892F0F900F90DF91CF91CB
:100550001F910F91FF90EF90DF90CF900895CF9370
:10056000DF93EA010E946702882351F068E0CE0120
:100570000E94240B91E02885821390E0892F01C00E
:1005800080E0DF91CF910895CF93DF93CDB7DEB7B1
:1005900029970FB6F894DEBF0FBECDBFAE014F5FF7
:1005A0005F4F0E94AF0229960FB6F894DEBF0FBED0
:1005B000CDBFDF91CF910895EF92FF920F931F93DC
:1005C000CF93DF93EC018B017A018D819E810E9494
:1005D0002B09B8018D819E810E94260A40E06EE4BD
:1005E0008D819E810E94C80940E0F70162818D8162
:1005F0009E810E94C80940E0F70163818D819E8140
:100600000E94C809F8018081803139F040E0F7018B
:1006100064818D819E810E94C8098D819E810E9486
:100620002B09B8018D819E810E94260AB8018D8117
:100630009E810E94260A488168E48D819E810E94E5
:10064000C80964E170E080E090E00E94FF2A8881A0
:10065000882331F06AE070E080E090E00E94FF2A99
:100660008D819E81DF91CF911F910F91FF90EF902F
:100670000C942B09EF92FF921F93CF93DF9300D03E
:10068000CDB7DEB77C01FC018581968169837A83D1
:100690000E942B0969817A81F701858196810E94E8
:1006A000260A40E064EBF701858196810E94C80923
:1006B000F701858196810E949D09182FF701858198
:1006C00096810E942B0981E0111180E00F900F901C
:1006D000DF91CF911F91FF90EF900895EF92FF92DD
:1006E0000F931F93CF93DF93CDB7DEB72A970FB643
:1006F000F894DEBF0FBECDBF7C018B01242FAE016D
:100700004F5F5F4F2A870E94AF022A858823D1F06E
:10071000F80180818031C1F02B3041F02C3021F084
:100720002A3031F48FE305C08FE703C08FE501C0A5
:100730008FE18D83AE014F5F5F4FB801C7010E940B
:10074000DC0202C080E001C081E02A960FB6F89476
:10075000DEBF0FBECDBFDF91CF911F910F91FF90F4
:10076000EF900895CF93DF93CDB7DEB729970FB6FB
:10077000F894DEBF0FBECDBFFB0120812031D1F048
:10078000AE014F5F5F4F0E94AF02882379F08D81E9
:100790008F3351F020F48F3149F489E00CC08F354C
:1007A00039F08F3739F002C08AE005C080E003C01D
:1007B0008BE001C08CE029960FB6F894DEBF0FBE27
:1007C000CDBFDF91CF910895FF920F931F93CF93E9
:1007D000DF93CDB7DEB728970FB6F894DEBF0FBE14
:1007E000CDBF8C01FC01858196810E94520AF801DF
:1007F000148241E0BE016F5F7F4FF80185819681D1
:100800000E94870A882389F1BE016F5F7F4FC8016C
:100810000E942F02882369F3F8018081811108C0AA
:10082000BE016F5F7F4FC8010E943A03811119C05A
:10083000F801F180BE016F5F7F4FC8010E94B203D3
:100840008F1518F4F801818106C0BE016F5F7F4FDC
:10085000C8010E94B203F801818384818F5F848381
:10086000C8CF81E0F8018083E3CF28960FB6F894D3
:10087000DEBF0FBECDBFDF91CF911F910F91FF90D3
:100880000895FC0162830895CF93DF93CDB7DEB75F
:1008900029970FB6F894DEBF0FBECDBFAE014F5FF4
:1008A0005F4F0E94670281E09981911101C080E051
:1008B00029960FB6F894DEBF0FBECDBFDF91CF9162
:1008C00008958F929F92AF92BF92CF92DF92EF9254
:1008D000FF920F931F93CF93DF93EC018A0169502E
:1008E000633048F4E62FF0E0EE0FFF1FE75FFE4FA6
:1008F0008080918004C09EEE892E92E0992E011591
:10090000110501F18B818823E9F0888181111AC0DA
:100910000E94D02A6B017C01AA2497FCA094BA2CD7
:10092000B801CE010E94440481111FC00E94D02A48
:10093000681979098A099B096C157D058E059F0543
:10094000A0F4EECFB401882777FD8095982FDF9132
:10095000CF911F910F91FF90EF90DF90CF90BF90BC
:10096000AF909F908F900C94FF2ADF91CF911F91B1
:100970000F91FF90EF90DF90CF90BF90AF909F903E
:100980008F900895CF93DF93EC018D819E810E941B
:100990002B098D819E810E944E0A488164E48D81DD
:1009A0009E810E94C8098A81882341F040E050E07E
:1009B0006981CE01DF91CF910C946104DF91CF91D9
:1009C0000895FA01208148E0249F9001112481813B
:1009D00090E0982F8827990F990F990F282B392B82
:1009E000DB018C918031C1F4678170E08681AB01BD
:1009F000481B5109CA019695982F88279795879586
:100A00000E94BA3460517109207F53E0220F331FD6
:100A10005A95E1F7260F371FC9010895EF92FF920B
:100A20000F931F93CF93DF93CDB7DEB729970FB600
:100A3000F894DEBF0FBECDBF8C017B01AE014F5FCE
:100A40005F4F0E94AF02882341F0AE014F5F5F4FBE
:100A5000B701C8010E94E10402C080E894EE299623
:100A60000FB6F894DEBF0FBECDBFDF91CF911F91BF
:100A70000F91FF90EF900895813824EE9207A4F033
:100A8000BC01882777FD8095982F0E94513326E678
:100A900036E646E65CE30E94533420E030E040E076
:100AA00052E40E94143208956AE979E984E493ECEF
:100AB00008950E940E050C943C050F931F93CF934D
:100AC000DF93CDB7DEB728970FB6F894DEBF0FBE21
:100AD000CDBF8C01462FBE016F5F7F4F0E943E024B
:100AE000882339F0BE016F5F7F4FC8010E9459050E
:100AF00004C06AE979E984E493EC28960FB6F89487
:100B0000DEBF0FBECDBFDF91CF911F910F91089532
:100B1000CB010C944A38CB01642F0C9452386115E8
:100B200071058105910569F481E090E0A0E0B0E0F5
:100B30008093B6019093B701A093B801B093B90127
:100B400008C06093B6017093B7018093B801909389
:100B5000B9015093B5014093B401809170008E7F2C
:100B6000809370008091B0008C7F8093B000809162
:100B7000B100877F8093B1008091B6008F7D809314
:100B8000B600809170008D7F809370008091B100DD
:100B900084608093B1008091B1008C7F8093B1001C
:100BA00086E090E09093AE018093AD01089510929D
:100BB000B0011092B1011092B2011092B3011092E3
:100BC000AF018091AD019091AE018093B200E0E75A
:100BD000F0E080818160808308958091B0019091E0
:100BE000B101A091B201B091B3010196A11DB11D57
:100BF0008093B0019093B101A093B201B093B3017F
:100C00008091B0019091B101A091B201B091B30176
:100C10004091B6015091B7016091B8017091B9014E
:100C200084179507A607B70710F18091AF018111CE
:100C30001EC081E08093AF018091B0019091B1011D
:100C4000A091B201B091B301841B950BA60BB70B19
:100C50008093B0019093B101A093B201B093B3011E
:100C6000E091B401F091B50109951092AF0108959A
:100C70001F920F920FB60F9211242F933F934F9311
:100C80005F936F937F938F939F93AF93BF93EF93F4
:100C9000FF938091AD019091AE018093B2000E94CC
:100CA000ED05FF91EF91BF91AF919F918F917F9152
:100CB0006F915F914F913F912F910F900FBE0F90C9
:100CC0001F901895FC0112828FEF8183108213828E
:100CD0000895FC018381882331F0611103C08FEFF7
:100CE00081830895118208958DEB91E00E94F90BA4
:100CF0008DEB91E00E94160C91E0811190E0892F1C
:100D00000895CF93DF93EC016A838DEB91E00E940D
:100D1000EF0B6A81CE010E9474068B83882329F031
:100D20008DEB91E00E94600B88838B8190E0DF91D6
:100D3000CF910895CF93DF93EC018B818823A9F0A5
:100D400089818095862388836A818DEB91E00E945A
:100D5000F90B68818DEB91E00E94B00B8DEB91E077
:100D60000E94160C282F30E002C020E030E081E025
:100D700090E0232B11F080E090E0DF91CF91089577
:100D800008950895DC01ED91FC910284F385E02D36
:100D900041E0099581E090E00895FC011382128200
:100DA00023E131E0318320830895DC01ED91FC9152
:100DB0000084F185E02D6FEF0994DC01ED91FC9149
:100DC0000284F385E02D40E0099461E00E94DD0695
:100DD00080ED97E00C94272B62E00E94DD0680ED09
:100DE00097E00C94272BCF93DF93CDB7DEB72897EE
:100DF0000FB6F894DEBF0FBECDBF1D8220E42E8358
:100E000034E13F8334E5388719822A8320E12B833C
:100E100020E52C83FC012781421710F04FEF420F91
:100E2000FC01308550E0FE01E40FF51F303121F464
:100E3000243011F4218101C02581260F2068622F02
:100E400028960FB6F894DEBF0FBECDBFDF91CF91CD
:100E50000C94DD06FC016581262F246025836C60DF
:100E60000C94DD06CF93DF93EC01423018F08C81B7
:100E700088608C834F836887222329F0413019F4DE
:100E80008C8184608C8364E670E080E090E00E9456
:100E9000FF2A6C8164FD31C0E881F9810284F38509
:100EA000E02D42E063E0CE01099584E991E10E94E2
:100EB000272BE881F9810284F385E02D42E063E08D
:100EC000CE01099586E990E00E94272BE881F981FF
:100ED0000284F385E02D42E063E0CE01099586E9C6
:100EE00090E00E94272BE881F9810284F385E02DB0
:100EF00042E062E0CE01099516C06062CE010E9418
:100F0000DD0684E991E10E94272B6C816062CE01AD
:100F10000E94DD0686E990E00E94272B6C816062CA
:100F2000CE010E94DD0686E990E00E94272B6C81AD
:100F30006062CE010E94DD068CE390E00E94272BC8
:100F400084E08D83CE010E942A07CE010E94E5062F
:100F500082E08E8366E0CE010E94DD06CE01DF9145
:100F6000CF910C94D506FC0165816E7F6583686026
:100F70000C94DD06FC016581262F216025836960C4
:100F80000C94DD06EF92FF920F931F93CF93DF93A4
:100F9000EC018A01677088E0689FB00111246064E9
:100FA000CE010E94DD068EE190E00E94272B7801A1
:100FB000E8E0EE0EF11CF8016491E881F9810190FE
:100FC000F081E02DCE01099588E290E00E94272B68
:100FD0000F5F1F4F0E151F0571F7DF91CF911F9106
:100FE0000F91FF90EF90089521E001C0220F6A95C4
:100FF000EAF7DC011C962C931C971A965C934E938F
:101000001997ED91FC910084F185E02D60E0099441
:10101000FC012485222399F081859285009719F49B
:10102000611105C006C0019721F4611102C0258736
:1010300001C015866585CF010E960C949A06089519
:101040000F931F93CF93DF93EC018C01025F1F4F2F
:101050006B85C8010E948106019761F461E0C801B7
:101060000E9469061C8260E0C8010E949A0681E025
:1010700090E002C080E090E0DF91CF911F910F914E
:1010800008958F92AF92CF92EF920F93CF93DF9309
:10109000CDB7DEB7FC0163871486158612861186EC
:1010A00081E0982F01C0990F4A95EAF7928B982F0B
:1010B00001C0990F2A95EAF7938B982F01C0990FD9
:1010C0000A95EAF7948B982F01C0990FEA94EAF7F2
:1010D000958B982F01C0990FCA94EAF7968B982F99
:1010E00001C0990FAA94EAF7978B01C0880F8A94E0
:1010F000EAF7808FDF91CF910F91EF90CF90AF9073
:101100008F9008954F925F926F927F928F92AF92DD
:10111000CF92EF920F931F93CF93DF9300D01F9244
:10112000CDB7DEB73C011A894B885C882B834A8394
:1011300069830E94CD0683E291E0F301918380836D
:10114000C3010E960E9462062B814A816981C30108
:101150000E944108A201612FC3010F900F900F90D0
:10116000DF91CF911F910F91EF90CF90AF908F9023
:101170007F906F905F904F900C94F407FF920F93C5
:101180001F93CF93DF93EC01F62E8C01025F1F4F6C
:101190006A896F29C8010E949A066A8960956F2141
:1011A000C801DF91CF911F910F91FF900C949A0687
:1011B00020E030E050E060FF05C0FC01E20FF31FCB
:1011C0007589572B66952F5F3F4F2430310599F76E
:1011D000413011F4FC014489FC016585652B642BC9
:1011E0000C94BE080F931F93CF93DF93EC01142F41
:1011F000062F0F70423011F440E00AC070E084E026
:10120000759567958A95E1F7CE010E94D808412F20
:10121000602FCE01DF91CF911F910F910C94D808D0
:101220000F931F93CF93DF9300D01F92CDB7DEB7FC
:101230008C012B834A8369830E9420082B814A8179
:101240006981C8010F900F900F90DF91CF911F918E
:101250000F910C943207FF920F931F93CF93DF935C
:10126000FC010081C181D281F8948981F02EF09433
:101270008F21898378941DE7115029F182E090E055
:101280000E94272B88818023B9F3F8948A818F21CB
:101290008A838981802B8983789480EE91E00E94F3
:1012A000272BF89489818F21898386E490E00E941E
:1012B000272B8881802311E009F010E078948AE9D7
:1012C00091E00E94272B812FDF91CF911F910F91E9
:1012D000FF9008951F93CF93DF93FC011081C1818C
:1012E000D281912F909560FF12C0F8948A81892352
:1012F0008A838981812B89838AE090E00E94272B51
:101300008A81812B8A83789487E390E011C0F894D6
:101310008A8189238A838981812B898381E490E072
:101320000E94272B8A81812B8A83789485E090E024
:10133000DF91CF911F910C94272B0F931F93CF9385
:10134000DF93FC011081C181D281F8948981812BC6
:1013500089838A81012F009580238A8383E090E02E
:101360000E94272B8981802389838AE090E00E9454
:10137000272BC881789485E390E00E94272B1C23BB
:1013800081E009F480E0DF91CF911F910F910895E2
:10139000CF92DF92EF92FF920F931F93CF93DF9341
:1013A0001F92CDB7DEB76C01E62E08E010E0FF24F7
:1013B000F39461E09F2D9E2109F460E0C60149830A
:1013C0000E946A09FF0C015011094981011511059C
:1013D00081F7411115C0F894D6011196ED91FC9159
:1013E000129791818C918095892381831196ED913B
:1013F000FC91129792818C918095892382837894B5
:101400000F90DF91CF911F910F91FF90EF90DF90A0
:10141000CF900895EF92FF920F931F93CF93DF9396
:101420008C01C8E0D0E0F12CEE24E394C8010E94C6
:101430009D098111FE28EE0C2197C1F78F2DDF91B8
:10144000CF911F910F91FF90EF900895CF92DF926F
:10145000FF920F931F93CF93DF931F92CDB7DEB709
:101460008C01F62E40E065E579830E94C809CF2CF7
:101470007981D72E88E0F82EF60161916F0140E066
:10148000C8010E94C809FA94B9F70F90DF91CF9173
:101490001F910F91FF90DF90CF90089540E06CEC8A
:1014A0000C94C809FC0113861586148627E030E0E9
:1014B000DF01A20FB31F13961C922115310519F0FD
:1014C00021503109F5CF08951F93CF93DF93EC019D
:1014D000162F60E0812F0E94B22B612F70E0FB017C
:1014E000E656FD4FE491E883FB01E255FD4FE491A0
:1014F000F0E0EE0FFF1FEE53FD4F859194919A831C
:101500008983CE01DF91CF911F910C94520AAF9243
:10151000BF92CF92DF92EF92FF920F931F93CF93E0
:10152000DF931F92CDB7DEB75C01D62EE72EFC010C
:101530008585811164C0C50149830E942B094981B9
:10154000811105C0F50113861586148671C04423E8
:1015500019F040E060EF02C040E06CEEC5010E946F
:10156000C80901E0F12CC12C11E0C5010E949D09C0
:10157000682FC50169830E949D096981613019F452
:101580008130B9F433C02F2D30E068131BC0F50152
:101590008385181730F4E20FF31F8381802349F409
:1015A00002C0181731F060E0193058F4F5011487C3
:1015B00008C0F501EF0DF11D8381802B838361E06D
:1015C00009C0C12EF501E20FF31F8381902F909582
:1015D00089238383C5010E946A091F5F000F11F4EC
:1015E000F39401E0F7E0FF1508F0BFCF113438F0B5
:1015F000F501C386C11009C081E0858706C0F501E9
:1016000013861586148680E013C0F5018381882334
:10161000B1F3ED2DFE2D80E090E0D501A80FB91FAC
:1016200013962C912193019688309105B1F781E0B2
:101630000F90DF91CF911F910F91FF90EF90DF906E
:10164000CF90BF90AF900895DC0180E0615038F0FA
:10165000ED91E827F0E0E859FF4F8491F7CF089526
:1016600008951F920F920FB60F9211242F933F935C
:101670004F935F936F937F938F939F93AF93BF939A
:10168000EF93FF93E0910601F09107010995FF9117
:10169000EF91BF91AF919F918F917F916F915F91EA
:1016A0004F913F912F910F900FBE0F901F90189563
:1016B0008091ED0190E02091EE01821B9109089547
:1016C0002091EE018091ED01281750F4E22FF0E017
:1016D000E151FE4F808190E02F5F2093EE0108954D
:1016E0008FEF9FEF0895E091EE018091ED01E817F3
:1016F00030F4F0E0E151FE4F808190E008958FEFEB
:101700009FEF08950895CF92DF92EF92FF920F938B
:101710001F93CF93DF937C01CB018A012091C901F4
:10172000222389F0EB016B01C40ED51ECC15DD051B
:1017300069F06991D701ED91FC910190F081E02D64
:10174000C7010995F3CF642F0E948E0CC801DF9169
:10175000CF911F910F91FF90EF90DF90CF90089560
:10176000CF93DF931F92CDB7DEB769832091C90174
:101770002223D1F02091CA01203240F021E030E054
:10178000FC013383228380E090E015C08091CB017F
:10179000E82FF0E0E453FE4F998190838F5F8093B0
:1017A000CB018093CA0105C061E0CE0101960E9481
:1017B0008E0C81E090E00F90DF91CF910895FC01B5
:1017C0001382128248EE53E060E070E04483558358
:1017D0006683778383E391E09183808308951092F9
:1017E000EE011092ED011092CB011092CA010C94FF
:1017F0001D0C81E08093C9016093EC011092CB0134
:101800001092CA0108950F93062F21E04091CA015A
:101810006CEC71E08091EC010E943B0C1092CB01CA
:101820001092CA011092C9010F91089561E00C94C1
:10183000030C8DEB91E00C94DF0B10927C0281E0A5
:1018400080937A021092790261E082E10E94EB2B90
:1018500061E083E10E94EB2BE9EBF0E080818E7F79
:10186000808380818D7F808388E48093B80085E4C5
:101870008093BC0008950F93413208F046C09091C8
:101880007C029111FCCF92E090937C0200937A024B
:101890009FEF90930F021092540240935302FB016A
:1018A00065E572E0DB019A2F961B941718F491916D
:1018B0009D93F9CF10927B0290917B02880F892B28
:1018C00080937B0280917902813041F410927902F9
:1018D00080917B028093BB0085EC01C085EE8093F4
:1018E000BC00222321F080917C028230E1F38091C0
:1018F0000F028F3F61F080910F02803251F0809192
:101900000F02803341F483E007C081E005C080E02E
:1019100003C082E001C084E00F910895613298F421
:1019200020917C02243089F460933102FC0183E32E
:1019300092E0DC012A2F281B261718F421912D9301
:10194000F9CF80E0089581E0089582E0089585ED63
:101950008093BC008091BC0084FDFCCF10927C027F
:10196000089585EC8093BC0010927C0208951F922C
:101970000F920FB60F9211242F933F934F935F93C3
:101980006F937F938F939F93AF93BF93EF93FF9347
:101990008091B900887F803609F49CC068F5883250
:1019A00009F45BC090F4803109F454C038F4882302
:1019B00009F4F5C0883009F44DC0F5C0883109F448
:1019C0004CC0803209F45DC0EEC0803409F468C0B8
:1019D00048F4803309F455C0883309F0E4C080939B
:1019E0000F02A8C0803509F44FC0883509F45DC0E6
:1019F000883409F0D8C0D5C0883909F4C6C0A8F425
:101A0000883709F467C038F4883609F463C0803732
:101A100009F460C0C8C0883809F4B7C0803909F437
:101A20005FC0803809F0BFC05BC0803B09F485C04F
:101A300038F4803A09F466C0883A09F47EC0B3C02D
:101A4000803C09F4A6C0883C09F4A3C0883B09F493
:101A500089C0A9C080917B0210C0909154028091EE
:101A60005302981770F5E091540281E08E0F809335
:101A70005402F0E0EB5AFD4F80818093BB0085EC6F
:101A800085C080930F028DC0E091540281E08E0FDB
:101A9000809354028091BB00F0E0EB5AFD4F8083AD
:101AA00090915402809153026DC0E091540281E004
:101AB0008E0F809354028091BB00F0E0EB5AFD4FF3
:101AC000808380917A0281116CC081E080937902D9
:101AD00084EA60C083E080937C0210921002CFCF32
:101AE00080911002803208F050C0E091100281E035
:101AF0008E0F809310028091BB00F0E0EF5EFD4FEF
:101B00008083BDCF80911002803230F4E0911002CA
:101B1000F0E0EF5EFD4F10820E94A70C6091100272
:101B200070E0E0917502F091760281E192E0099512
:101B3000109210020E94B10C36C084E080937C02A7
:101B40001092320210923102E0917702F091780205
:101B5000099580913102811105C081E080933102A5
:101B600010923302E091320281E08E0F80933202B4
:101B7000F0E0ED5CFD4F80818093BB0090913202DC
:101B800080913102981708F47ACF85E88093BC00E1
:101B90000AC085EC8093BC0010927C0204C01092B5
:101BA0000F020E94A70CFF91EF91BF91AF919F91FF
:101BB0008F917F916F915F914F913F912F910F90F6
:101BC0000FBE0F901F9018950E94D02A6093AC0210
:101BD0007093AD028093AE029093AF020E94D02A20
:101BE0006093CA027093CB028093CC029093CD0293
:101BF00081E08093C90208952F923F924F925F92A5
:101C00006F927F928F929F92AF92BF92CF92DF920C
:101C1000EF92FF920F931F938090F005912C8FE02D
:101C20000E946C2BF401EE0FFF1FEF50FA4F9183CF
:101C300080838091F0058F5F8093F005803211F5ED
:101C4000E1EFF5E020E030E040E050E060E070E0FF
:101C500080E090E0219031905101C12CD12CE12CF9
:101C6000F12C00E010E00E94B135A6E0E133FA0764
:101C700089F705E00E9495353093EF052093EE0536
:101C80001092F0051F910F91FF90EF90DF90CF9091
:101C9000BF90AF909F908F907F906F905F904F908C
:101CA0003F902F900895CF93DF93009761F0FC0150
:101CB0006491EF012196662331F085ED95E00E9455
:101CC000BF2EFE01F5CFDF91CF9108954F925F9225
:101CD0006F927F928F929F92AF92BF92CF92DF923C
:101CE000EF92FF920F931F93CF93DF9300D000D01A
:101CF000CDB7DEB78A0110928E0210928F02109239
:101D000090021092910210928A0210928B0210920D
:101D10008C0210928D02109286021092870210920D
:101D2000880210928902109282021092830210920D
:101D30008402109285027B016C01A12CB12C822EB1
:101D4000912CA814B9040CF072C0D6012D913D91CC
:101D50004D915C9160918E0270918F028091900202
:101D6000909191020E94143260938E0270938F02C0
:101D700080939002909391023701F7012191319164
:101D8000419151917F0160918A0270918B02809103
:101D90008C0290918D020E94143260938A0270939B
:101DA0008B0280938C0290938D02D3012D913D91F3
:101DB0004D915C91F60160817181828193810E94D5
:101DC00053349B01AC01609186027091870280912F
:101DD0008802909189020E94143260938602709367
:101DE00087028093880290938902D6016D917D913C
:101DF0008D919D916D019B01AC010E9453349B011B
:101E0000AC01609182027091830280918402909172
:101E100085020E9414326093820270938302809341
:101E2000840290938502BFEFAB1ABB0A8ACFB4013C
:101E3000882777FD8095982F0E9451334B015C01D4
:101E40009B01AC0160918E0270918F028091900293
:101E5000909191020E947C326B017C0160938E0212
:101E600070938F028093900290939102A501940148
:101E700060918A0270918B0280918C0290918D0208
:101E80000E947C3269837A838B839C8360938A026D
:101E900070938B0280938C0290938D02A501940124
:101EA00060918602709187028091880290918902E8
:101EB0000E947C322B013C01609386027093870262
:101EC0008093880290938902A50194016091820217
:101ED0007091830280918402909185020E947C32ED
:101EE0004B015C01609382027093830280938402B1
:101EF0009093850229813A814B815C81C701B601AB
:101F00000E9453349B01AC01C301B2010E94133201
:101F10002B013C01A7019601C701B6010E94533471
:101F20009B01AC01C501B4010E9413329B01AC01BD
:101F3000C301B2010E947C32F80160837183828305
:101F4000938320918E0230918F02409190025091A4
:101F500091020E9453349B01AC0160918A027091FE
:101F60008B0280918C0290918D020E941332D801D5
:101F700014966D937D938D939C9317970F900F906C
:101F80000F900F90DF91CF911F910F91FF90EF90E5
:101F9000DF90CF90BF90AF909F908F907F906F9089
:101FA0005F904F9008952F923F924F925F926F9261
:101FB0007F928F929F92AF92BF92CF92DF92EF92D9
:101FC000FF920F931F93CF93DF93CDB7DEB7C65F1A
:101FD000D1090FB6F894DEBF0FBECDBF8091AB051F
:101FE0008111E1C01092CE021092CF021092D00265
:101FF0001092D1021092D2021092D3021092D40207
:102000001092D5023090C7034090C8035090C90386
:102010002090CA038091CB03CF50DF4F8883C15FEC
:10202000D0409091CC03CE50DF4F9883C25FD04018
:10203000E091CD03CD50DF4FE883C35FD040F091F6
:10204000CE03CC50DF4FF883C45FD040A1E0B0E0B6
:10205000FD0153E0EE0FFF1F5A95E1F7E953FC4FE6
:10206000208131814281538164817581868197818C
:10207000A32CB42CC52CD22CCF50DF4FE880C15FED
:10208000D040CE50DF4FF880C25FD040CD50DF4F00
:102090000881C35FD040CC50DF4F1881C45FD0406F
:1020A0000E94C335E0F430804180528023808481D7
:1020B000CF50DF4F8883C15FD0409581CE50DF4F36
:1020C0009883C25FD0408681CD50DF4F8883C35F45
:1020D000D0409781CC50DF4F9883C45FD040119699
:1020E000AC33B10509F0B4CFFE0131963F01812C2C
:1020F000912CCB50DF4FE883C55FD040CA50DF4FF3
:102100007882C65FD040F40143E0EE0FFF1F4A958E
:10211000E1F7E953FC4F2081318142815381648191
:10212000758186819781A32CB42CC52CD22CCF50DD
:10213000DF4FE880C15FD040CE50DF4FF880C25FF4
:10214000D040CD50DF4F0881C35FD040CC50DF4F2F
:102150001881C45FD0400E94BA350E948C3320E0C1
:1021600030E04AE754E40E947C32F30161937193BA
:10217000819391933F01FFEF8F1A9F0A8CE388169A
:10218000910409F62CE34EEC52E067ED72E0CB507F
:10219000DF4F8881C55FD040CA50DF4F9881C65F4E
:1021A000D0400E94660ECA50DF4F0FB6F894DEBFD3
:1021B0000FBECDBFDF91CF911F910F91FF90EF9098
:1021C000DF90CF90BF90AF909F908F907F906F9057
:1021D0005F904F903F902F9008952F923F924F9293
:1021E0005F926F927F928F929F92AF92BF92CF92A7
:1021F000DF92EF92FF920F931F93CF93DF930E9492
:10220000D02A2090C1023090C2024090C302509068
:10221000C4026090C5027090C6028090C702909080
:10222000C802A090C102B090C202C090C302D09078
:10223000C402E090C502F090C6020091C70210915E
:10224000C8026219730984099509DC01CB019C015C
:10225000AD0160E070E080E090E00E94B135209335
:10226000C1023093C2024093C3025093C4026093F0
:10227000C5027093C6028093C7029093C802209152
:10228000C1023091C2024091C3025091C4026091D8
:10229000C5027091C6028091C7029091C802DF9179
:1022A000CF911F910F91FF90EF90DF90CF90BF9053
:1022B000AF909F908F907F906F905F904F903F90E6
:1022C0002F9008950F931F93CF93DF938091AB02CC
:1022D000882309F46DC06CEA75E084EB95E00E94F8
:1022E000C402882309F45FC00E94D02A0091A70588
:1022F0001091A8052091A9053091AA05601B710BCA
:10230000820B930B6E3E72408105910508F4F2C07A
:102310001092AB05C091D602DD27C7FDD09560E0D5
:1023200084EB95E00E945D05FE01EE0FFF1FEE0FAE
:10233000FF1FE952FD4F6083718382839383C091B5
:10234000D602DD27C7FDD0950E94ED10FE01D3E037
:10235000EE0FFF1FDA95E1F7E953FC4F208331833D
:1023600042835383648375838683978384EB95E0EC
:102370000E94C2040E94D02A6093A7057093A8050A
:102380008093A9059093AA058091D6028F5F8093D0
:10239000D6028C3314F01092D6020E94D30F81E043
:1023A0008093AB05A7C01092AB021092AB05A2C000
:1023B00084EB95E00E94E40384EB95E00E942C02FC
:1023C000882309F497C040E060E085ED95E00E9425
:1023D000F3066CEB71E085ED95E00E948A2E80EEAD
:1023E00091E00E94530E41E060E085ED95E00E948F
:1023F000F30680EE91E00E94530E40E06CEA75E037
:1024000084EB95E00E943E024CE06CEA75E084EBC0
:1024100095E00E946E0360E084EB95E00E94410429
:1024200000E010E06CEA75E084EB95E00E94C402E5
:10243000882309F45FC041E060E085ED95E00E94EB
:10244000F306E80121964AE050E0BE0185ED95E0F3
:102450000E94692F65EB71E085ED95E00E948A2E60
:1024600084EB95E00E94C2046EEE72E080E090E0A2
:102470000E94FF2A60E084EB95E00E945D05F80170
:10248000EE0FFF1FEE0FFF1FE952FD4F60837183B8
:10249000828393830E94ED10F801B3E0EE0FFF1FDB
:1024A000BA95E1F7E953FC4F20833183428353838C
:1024B0006483758386839783CC33D10511F08E01B5
:1024C000B1CF84EB95E00E94C2040E94D02A6093B1
:1024D000A7057093A8058093A9059093AA0510926B
:1024E000D6020E94D30F81E08093AB058093AB02AC
:1024F0001092C902DF91CF911F910F9108952F92F1
:102500003F924F925F926F927F928F929F92AF9283
:10251000BF92CF92DF92EF92FF920F931F93CF93D0
:10252000DF93CDB7DEB760970FB6F894DEBF0FBE6E
:10253000CDBF2B013C01E091D60288E0E802F0011A
:102540001124E953FC4FA080B180C280D380E48085
:10255000F580068117818091D60218163CF4E0912F
:10256000D602FF27E7FDF095319702C0EBE3F0E0DC
:1025700083E0EE0FFF1F8A95E1F7E953FC4FA0813E
:10258000A983B181BA83228033808480958086813B
:10259000888BA781AF870E94ED102F8338874987EA
:1025A0005A876B877C878D879E8729813A81A10115
:1025B000B40188899F850E94BA350E948C3320E03F
:1025C00030E04AE754E40E947C326B837C838D8345
:1025D0009E832F81388549855A856B857C858D85BD
:1025E0009E85A980BA806101740108891F850E94B7
:1025F000BA350E948C3320E030E04AE754E40E9470
:102600007C329B01AC016B817C818D819E810E941B
:102610001432A30192010E9414322091CE02309113
:10262000CF024091D0025091D1020E9453342091A8
:10263000D2023091D3024091D4025091D5020E942F
:10264000143260960FB6F894DEBF0FBECDBFDF9197
:10265000CF911F910F91FF90EF90DF90CF90BF909F
:10266000AF909F908F907F906F905F904F903F9032
:102670002F900895CF92DF92EF92FF92CF938091A7
:10268000C902882309F442C0C090CA02D090CB028C
:10269000E090CC02F090CD0261E270E080E090E04A
:1026A0000E94FF2A82E00E94212C892B59F40E946B
:1026B000D02A6C197D098E099F09683E73408105F7
:1026C000910580F30E94D02A6C197D098E099F091B
:1026D000683E73408105910578F40E94D02A6C19F8
:1026E0007D098E099F09C1E0643671058105910558
:1026F00008F0C0E0C19501C0C1E061E270E080E097
:1027000090E00E94FF2A1092C90201C0CFEF8C2FE7
:10271000CF91FF90EF90DF90CF900895CF9380916D
:10272000AB02882349F08091A302811107C004C045
:102730008091A802813009F1C0E031C08091AB05E1
:10274000811103C0C09181022AC08091A802811129
:10275000EFCF60E070E0CB010E947F122091A402D5
:102760003091A5024091A6025091A7020E947832B2
:10277000C82FCC1FCC27CC1F12C060E070E0CB016B
:102780000E947F122091A4023091A5024091A602DE
:102790005091A702C1E00E944F3418166CF68C2F9E
:1027A000CF9108954F925F926F927F928F929F92F6
:1027B000AF92BF92CF92DF92EF92FF920F931F934F
:1027C000CF93DF938091C002823009F085C00E94D0
:1027D0008E13809381020E94ED1029013A014B0172
:1027E000D82FC92FA090B802B090B902C090BA02F9
:1027F000D090BB02E090BC02F090BD020091BE02FE
:102800001091BF020E94BA350E948C3320E030E064
:102810004AE754E40E947C326B017C0120919A02C9
:1028200030919B0240919C0250919D0260919E02CA
:1028300070919F028091A0029091A1020E948C331E
:102840009B01AC01C701B6010E944F3487FD13C044
:102850004092B8025092B9026092BA027092BB02E2
:102860008092BC029092BD02D093BE02C093BF0280
:10287000C12CD12C76018091AA02811112C08091C5
:10288000A3028823F1F18091A9028823D1F18091DC
:10289000AB028823B1F180918102882349F061E085
:1028A00008C08091AA0290E095958795892BB9F789
:1028B00060E084E0DF91CF911F910F91FF90EF9046
:1028C000DF90CF90BF90AF909F908F907F906F9050
:1028D0005F904F900C94B22B8091C002882341F3FB
:1028E000DF91CF911F910F91FF90EF90DF90CF90EC
:1028F000BF90AF909F908F907F906F905F904F9020
:102900000895A0909202B0909302809094029090CB
:102910009502609096027090970200919802109133
:102920009902C701B6010E942333DC01CB019C014F
:10293000AD0160E070E080E090E0640173010E940E
:10294000C33508F0A8CFABCF4F925F926F927F92C2
:102950008F929F92AF92BF92CF92DF92EF92FF92AF
:102960000F931F93CF93DF9341E060E085ED95E0F7
:102970000E94F3068091A302882309F462C080912B
:10298000A902882309F45DC08091AB02882309F471
:1029900058C08091AB05882309F442C241E060E051
:1029A00085ED95E00E94F306C090A402D090A502A8
:1029B000E090A602F090A70260E070E0CB010E94D8
:1029C0007F129B01AC01C701B6010E941332AB011B
:1029D000BC0122E030E085ED95E00E946F30E0918F
:1029E000D505F091D6050190F081E02D6FED85EDD4
:1029F00095E009956FE371E085ED95E00E94BD2EAD
:102A00000E948E13882319F062E471E002C067E42B
:102A100071E085ED95E00E94BD2E80EE91E0DF91A2
:102A2000CF911F910F91FF90EF90DF90CF90BF90CB
:102A3000AF909F908F907F906F905F904F900C948D
:102A4000530E0E94ED10E901942E852E762E672EEE
:102A5000582E492E8091C002813089F42091B00215
:102A60003091B1024091B2025091B3026091B40230
:102A70007091B5028091B6029091B70219C0A090F2
:102A8000B802B090B902C090BA02D090BB02E090F8
:102A9000BC02F090BD020091BE021091BF029E01E7
:102AA000492D582D672D762D852D942D0E94BA35F0
:102AB0000E948C3320E030E04AE754E40E947C32EC
:102AC0006B017C0120919A0230919B0240919C0203
:102AD00050919D0260919E0270919F028091A00290
:102AE0009091A1020E948C339B01AC01C701B601F9
:102AF0000E947C3220E030E040E851E40E945334F0
:102B000020E030E0A9010E944F3487FD5DC0809134
:102B1000C002813089F42091B0023091B10240911D
:102B2000B2025091B3026091B4027091B5028091EB
:102B3000B6029091B70219C0A090B802B090B90245
:102B4000C090BA02D090BB02E090BC02F090BD02EF
:102B50000091BE021091BF029E01492D582D672D94
:102B6000762D852D942D0E94BA350E948C3320E05D
:102B700030E04AE754E40E947C326B017C012091F2
:102B80009A0230919B0240919C0250919D0260916B
:102B90009E0270919F028091A0029091A1020E94DA
:102BA0008C339B01AC01C701B6010E947C3220E04E
:102BB00030E040E851E40E94533420E030E040E04F
:102BC0005FE30E9414325CC08091C002813089F4BE
:102BD0002091B0023091B1024091B2025091B30203
:102BE0006091B4027091B5028091B6029091B702E3
:102BF00019C0A090B802B090B902C090BA02D090AB
:102C0000BB02E090BC02F090BD020091BE021091A8
:102C1000BF029E01492D582D672D762D852D942DAF
:102C20000E94BA350E948C3320E030E04AE754E439
:102C30000E947C326B017C0120919A0230919B02B0
:102C400040919C0250919D0260919E0270919F0262
:102C50008091A0029091A1020E948C339B01AC0153
:102C6000C701B6010E947C3220E030E040E851E428
:102C70000E94533420E030E040E05FE30E941332D2
:102C80000E941E33EB0120919202309193024091F9
:102C900094025091950260919602709197028091F2
:102CA00098029091990240909A0250909B026090F5
:102CB0009C0270909D0280909E0290909F020091D5
:102CC000A0021091A1020E948C336B017C01920141
:102CD000A301B401C8010E948C339B01AC01C70160
:102CE000B6010E947C3220E030E040E851E40E94CE
:102CF000533420E030E0A9010E944F342091920229
:102D00003091930240919402509195026091960205
:102D10007091970287FD31C080919802909199023D
:102D200040909A0250909B0260909C0270909D028D
:102D300080909E0290909F020091A0021091A102AB
:102D40000E948C336B017C019201A301B401C80184
:102D50000E948C339B01AC01C701B6010E947C32FA
:102D600020E030E040E851E40E94533420E030E0BD
:102D700040E05FE30E94143230C08091980290914D
:102D8000990240909A0250909B0260909C02709031
:102D90009D0280909E0290909F020091A00210914F
:102DA000A1020E948C336B017C019201A301B4014A
:102DB000C8010E948C339B01AC01C701B6010E947F
:102DC0007C3220E030E040E851E40E94533420E0BF
:102DD00030E040E05FE30E9413320E941E336B013B
:102DE000E12CF12CEC16FD067CF4C114D10429F47D
:102DF000E114F10439F46CE708C0EC14FD0414F498
:102E00006FEF03C06FE501C060E285ED95E00E94C1
:102E1000BF2E8FEFE81AF80A80E1E816F10411F7E7
:102E2000DF91CF911F910F91FF90EF90DF90CF90A6
:102E3000BF90AF909F908F907F906F905F904F90DA
:102E400008958F929F92AF92BF92CF92DF92EF92AE
:102E5000FF920F931F93CF93DF939091C002981727
:102E600009F497C09091C002911102C0823031F0F4
:102E70009091C002911107C0813029F48093C00263
:102E80000E94ED1076C09091C002923021F0909196
:102E9000C0029130A9F4811113C01092C0021092A7
:102EA000B8021092B9021092BA021092BB021092AC
:102EB000BC021092BD021092BE021092BF0269C005
:102EC0009091C002913011F48230E9F09091C002EB
:102ED000923009F05EC0813009F05BC08093C0027F
:102EE0000E94ED102093B0023093B1024093B202E1
:102EF0005093B3026093B4027093B5028093B6020C
:102F00009093B70246C08093C0020E94ED10490121
:102F1000D42FC52FB62FA72FF82FE92FA090B002DE
:102F2000B090B102C090B202D090B302E090B4026F
:102F3000F090B5020091B6021091B7022091B8024C
:102F40003091B9024091BA025091BB026091BC022B
:102F50007091BD028091BE029091BF020E94BA356D
:102F60005401CD2EDC2EEB2EFA2E0F2F1E2F0E9499
:102F7000B1352093B8023093B9024093BA0250930E
:102F8000BB026093BC027093BD028093BE0290931B
:102F9000BF02DF91CF911F910F91FF90EF90DF90D3
:102FA000CF90BF90AF909F908F900895CF92DF9277
:102FB000EF92FF92CF93DF93EC016091EE05709159
:102FC000EF0580E090E00E944F3320E030E040E8E1
:102FD0005AE30E9453346B017C01BE0180E090E013
:102FE0000E944F339B01AC01C701B6010E945334CC
:102FF0000E942333CB01DF91CF91FF90EF90DF90C0
:10300000CF9008950F931F93CF93DF9302E912E0BF
:10301000C2E0D0E0F80141918F01BE018CEA91E05D
:103020000E948B052196CA31D105A1F760E070E0BE
:103030008CEA91E00E948805C82F61E070E08CEA7C
:1030400091E00E9488052C2F30E0322F2227282B78
:10305000233B3F4C91F04FEC60E070E08CEA91E054
:103060000E948B0543EB61E070E08CEA91E0DF9118
:10307000CF911F910F910C948B05DF91CF911F91F0
:103080000F9108950F931F93CF93DF9360E070E04B
:103090008CEA91E00E948805C82F61E070E08CEA1C
:1030A00091E00E9488052C2F30E0322F2227282B18
:1030B000233B3F4C89F402E912E0C2E0D0E0BE01BC
:1030C0008CEA91E00E948805F80181938F01219696
:1030D000CA31D105A1F706C0DF91CF911F910F91A1
:1030E0000C940218DF91CF911F910F9108954F9288
:1030F0005F926F927F928F929F92AF92BF92CF9288
:10310000DF92EF92FF920F931F93CF93DF93FC0117
:10311000408051806280738084809580D681C78191
:1031200060E8A62E71E5B72ECC24C394D12CE12CF7
:10313000F12C00E010E09201A301B4018D2F9C2F2F
:103140000E941D3520937D029201A301B4018D2FB1
:103150009C2F0E941B3529013A014B01D82FC92F02
:10316000E0E1AE2EFEE0BF2EC12C0E941D35209363
:103170007E029201A301B4018D2F9C2F0E941B356A
:1031800029013A014B01D82FC92FACE3AA2EB12C4B
:103190000E941D3520937F029201A301B4018D2F5F
:1031A0009C2F0E941B35209380028DE792E0DF91D7
:1031B000CF911F910F91FF90EF90DF90CF90BF9034
:1031C000AF909F908F907F906F905F904F900895F9
:1031D0008F929F92AF92CF92EF920F931F93CF93C4
:1031E000DF93CDB7DEB764970FB6F894DEBF0FBE9E
:1031F000CDBF4C010D871E872F87388B498B5A8B8B
:103200006B8B7C8BCE010D960E9477188C0168E643
:1032100071E0C4010E94DF30F8016081662301F192
:10322000EE20F1F04AE0CE0107960E944531BE0142
:10323000695F7F4FCE0101960E940C316CE471E012
:10324000CE0101960E94F831BC01C4010E94CE312A
:10325000CE0101960E947130CE0107960E94713016
:10326000F8018181811108C09081992311F0E1104A
:1032700003C0A11007C02BC0C11002C0AA2039F0A2
:103280008A3028F460E571E0C4010E94D5314AE03B
:10329000F8016181CE0107960E944531BE01695F48
:1032A0007F4FCE0101960E940C316CE471E0CE019B
:1032B00001960E94F831BC01C4010E94CE31CE01BA
:1032C00001960E947130CE0107960E947130F8017C
:1032D000828181110BC09181911108C09081992345
:1032E00011F0E11003C0A11007C03AC0C11002C024
:1032F000AA2039F08A3028F460E571E0C4010E9408
:10330000D5314AE0F8016281CE0107960E9445312D
:10331000BE01695F7F4FCE0101960E940C316CE4C3
:1033200071E0CE0101960E94F831BC01C4010E94F7
:10333000CE31CE0101960E947130CE0107960E94D7
:103340007130CC2051F0F80183818A3058F460E567
:1033500071E0C4010E94D53105C0A110F4CF02C0B4
:10336000C110F1CF4AE0F8016381CE0101960E94BD
:103370004531BE016F5F7F4FC4010E94CE31CE0147
:1033800001960E947130C40164960FB6F894DEBFB6
:103390000FBECDBFDF91CF911F910F91EF90CF90D6
:1033A000AF909F908F9008952F923F924F925F928F
:1033B0006F927F928F929F92AF92BF92CF92DF9245
:1033C000EF92FF920F931F93CF93DF93CDB7DEB7AA
:1033D0006A970FB6F894DEBF0FBECDBF85ED95E0BE
:1033E0000E94B30740E060E085ED95E00E94F3069F
:1033F0000E94ED1019014A016B8B7C8B8D8B9E8B8B
:1034000020919A0230919B0240919C0250919D0222
:1034100040909E0250909F026090A0027090A10286
:10342000A090B802B090B902C090BA02D090BB028E
:10343000E090BC02F090BD020091BE021091BF026C
:1034400068E671E0CE010D962F8B388F498F5A8F29
:103450000E94DF308091C0022F89388D498D5A8DAE
:10346000823081F48091A302882309F44EC18091B7
:10347000A902882309F449C18091AB02882309F489
:1034800044C180C08091C002811110C08091A3020C
:10349000882309F43DC18091A902882309F438C129
:1034A0008091AB02882309F433C16CC08091C002C3
:1034B000813009F067C020919A0230919B024091BF
:1034C0009C0250919D0260919E0270919F0280919A
:1034D000A0029091A1022090B0023090B1028090A1
:1034E000B2029090B302E091B402EB8BE091B5028E
:1034F000EC8BE091B602ED8BE091B702EE8BA090E1
:10350000B802B090B902C090BA02D090BB02E0906D
:10351000BC02F090BD020091BE021091BF020E9459
:103520008C332B013C019101A4016B897C898D892D
:103530009E890E94BA350E948C3320E030E04AE731
:1035400054E40E947C329B01AC01C301B2010E9491
:1035500013320E94E932A12CC12CEE24E39489019C
:103560009A01AB01BC01CE0101960E94E818BE0190
:103570006F5F7F4FCE010D960E94CE31CE01019636
:103580000E9471308091AB028823D1F18091A30217
:10359000882341F08091A902882321F08091AB0219
:1035A0008111BDC060E070E0CB010E947F12AB01D1
:1035B000BC0121E0CE0107960E94723167E671E0FE
:1035C000CE0101960E94DF30BE01695F7F4FCE01C0
:1035D00001960E94E531BC01CE010D960E94CE31CC
:1035E000CE0101960E947130CE0107960E94713083
:1035F0008091A302882321F08091A9028111B9C092
:1036000089899A89E12CF12C0FE010E0081B190B35
:10361000E016F10654F467E671E0CE010D960E94C3
:10362000D5318FEFE81AF80AF3CF40E060E085ED7E
:1036300095E00E94F306BE01635F7F4F85ED95E044
:103640000E94AF2E40E06FE085ED95E00E94F3060A
:103650008091C002813069F018F0823099F038C052
:10366000E091D505F091D6050190F081E02D62E062
:103670002CC0E091D505F091D6050190F081E02DA8
:1036800061E023C08091A302E091D505F091D605B9
:10369000882369F08091AB02882349F08091A902C8
:1036A000882329F00190F081E02D63E00EC0809125
:1036B000A302882309F4E4C08091AB02882309F4B3
:1036C000DFC00190F081E02D64E085ED95E0099583
:1036D000CE010D960E9471306A960FB6F894DEBF47
:1036E0000FBECDBFDF91CF911F910F91FF90EF9053
:1036F000DF90CF90BF90AF909F908F907F906F9012
:103700005F904F903F902F900895B201C30107CF73
:1037100060E571E0CE0101960E94DF3028CF60E0C5
:1037200070E0CB010E947F12AB01BC0122E0CE0110
:1037300001960E947231BE016F5F7F4FCE010D96E0
:103740000E94CE31CE0101960E9471306FEDCE0104
:1037500007960E942D31BE01695F7F4FCE01019611
:103760000E940C3162E571E0CE0101960E94F831B1
:1037700032CF8091AB02882309F442CF60E070E041
:10378000CB010E947F129B01AC0160E070E080E7FA
:1037900092E42F8B388F498F5A8F0E947F122F8986
:1037A000388D498D5A8D0E9413326B017C0120E0C7
:1037B00030E0A9010E9478324601570187FF04C01A
:1037C000B7FAB094B7F8B0942DEC3CEC4CEC5CE359
:1037D000C501B4010E94783287FD11C04090CE022D
:1037E0005090CF026090D0027090D10220E030E083
:1037F000A901C301B2010E947832811102C065E0C3
:103800000CC020E030E0A901C301B2010E944F3496
:10381000181614F466E001C067E0CE0101960E941C
:103820002D31BE016F5F7F4FCE010D960E94CE31CC
:10383000CE0101960E9471302DEC3CEC4CE45DE32E
:10384000C501B4010E944F3487FD08C023E0B701D1
:10385000A601CE0101960E94723106C06EE471E0AD
:10386000CE0101960E94DF30BE016F5F7F4FCE0117
:103870000D960E94CE31CE0101960E947130C0CECD
:103880000190F081E02D60E020CFAF92CF92EF92D7
:103890000F931F93CF93DF9300D000D000D0CDB70C
:1038A000DEB785ED95E00E94B30741E060E085ED6D
:1038B00095E00E94F30680EE91E00E94530E41E0F5
:1038C00060E085ED95E00E94F30661EB71E085ED27
:1038D00095E00E948A2EE2E9F2E0008111812281C6
:1038E00033814481558166817781AA24A394C12CB8
:1038F000EE24E394CE0101960E94E818BE016F5FAA
:103900007F4F85ED95E00E94AF2ECE0101960E947B
:10391000713041E060E085ED95E00E94F30685EDB1
:1039200095E00E94BA0726960FB6F894DEBF0FBE48
:10393000CDBFDF91CF911F910F91EF90CF90AF90BE
:103940000895AF92BF92CF92DF92EF92FF920F93C2
:103950001F93CF93DF9300D000D000D0CDB7DEB758
:1039600085ED95E00E94B30741E060E085ED95E0CC
:103970000E94F30680EE91E00E94530E41E060E069
:1039800085ED95E00E94F3066CEA71E085ED95E027
:103990000E948A2EEAE9F2E020813181428153813E
:1039A0006481758186819781E2E9F2E0A080B1802F
:1039B000C280D380E480F580068117810E94BA35E9
:1039C000AA24A394C12CEE24E39489019A01AB01AB
:1039D000BC01CE0101960E94E818BE016F5F7F4FC7
:1039E00085ED95E00E94AF2ECE0101960E947130C8
:1039F00041E060E085ED95E00E94F30685ED95E0FD
:103A00000E94BA0726960FB6F894DEBF0FBECDBF50
:103A1000DF91CF911F910F91FF90EF90DF90CF90AA
:103A2000BF90AF90089585ED95E00E94B30741E007
:103A300060E085ED95E00E94F3066CE971E085EDAC
:103A400095E00E948A2E41E062E085ED95E00E94BB
:103A5000F30685ED95E00C94BA072F923F924F92B2
:103A60005F926F927F928F929F92AF92BF92CF920E
:103A7000DF92EF92FF920F931F93CF93DF93CDB717
:103A8000DEB72C970FB6F894DEBF0FBECDBF85ED25
:103A900095E00E94B30741E060E085ED95E00E946B
:103AA000F30680EE91E00E94530E41E060E085ED68
:103AB00095E00E94F30664E571E085ED95E00E94D3
:103AC000BD2E68E671E0CE0107960E94DF300091BE
:103AD00092021091930220919402309195024091AC
:103AE0009602509197026091980270919902AA24CF
:103AF000A394CC24C394E12CCE0101960E94E81833
:103B0000BE016F5F7F4FCE0107960E94CE31CE017E
:103B100001960E947130BE01695F7F4F85ED95E08F
:103B20000E94AF2E41E069E085ED95E00E94F3062A
:103B300085ED95E00E94BA070E94D02A2B013C0136
:103B40008CE390E00E94D6178C018A30910528F40E
:103B500060E385ED95E00E94BF2E4AE050E0B80199
:103B600085ED95E00E947E2F82E992E00E94771811
:103B70004C018CE3A82EB12CCA2CD12C0E94D02A47
:103B800064197509860997096031774281059105A5
:103B900008F09AC1C6010E94D6177C0121E0B21636
:103BA00059F0B21630F082E0B8120CC041E063E088
:103BB00005C041E069E002C041E066E085ED95E0C6
:103BC0000E94F306E016F106A9F00E94D02A2B010C
:103BD0003C01AAE0EA16F10428F460E385ED95E0E3
:103BE0000E94BF2E4AE050E0B70185ED95E00E94AB
:103BF0007E2F8701B1E0BB1669F0BB1638F0E2E01A
:103C0000BE120AC0D40111960C9306C0D4011396BB
:103C10000C9302C0F40102830E943A13882319F026
:103C20008130D1F0ABCFB394B3E0BB1659F0E1E0F3
:103C3000BE1649F0BE1630F0F2E0BF1206C0B8E181
:103C4000AB2E03C0B12C1CE3A12E0E94D02A2B0165
:103C50003C010FEF10E090CFA0909202B090930241
:103C6000C0909402D0909502E0909602F090970256
:103C7000009198021091990220919A0230919B0232
:103C800040919C0250919D0260919E0270919F0212
:103C90008091A0029091A1020E94BA3520939A02CD
:103CA00030939B0240939C0250939D0260939E022E
:103CB00070939F028093A0029093A102D401129668
:103CC000FC9112971196AC902A2D30E040E050E024
:103CD00060E070E080E090E004E00E947A35B12C72
:103CE000C12CD12CE12CF12C00E010E00E94BA355F
:103CF00059016A017B01E82F192F04E00E947A35EF
:103D00000E2F0E94BA3504E00E947A35F22E032F5E
:103D10001A012B013C016F2F70E080E090E02CE352
:103D200030E040E050E00E94F03459016A01E62E94
:103D3000F72FE82F192F2F2D302FA101B201C3012A
:103D4000FF2E0E2F0E94B135F401A380B12CC12C9F
:103D5000D12CE12CF12C00E010E00E94B135209331
:103D60009202309393024093940250939502609391
:103D70009602709397028093980290939902A09074
:103D80009202B0909302C0909402D0909502E0907D
:103D90009602F0909702009198021091990220915A
:103DA0009A0230919B0240919C0250919D02609139
:103DB0009E0270919F028091A0029091A1020E94A8
:103DC000B13520939A0230939B0240939C0250930A
:103DD0009D0260939E0270939F028093A002909335
:103DE000A10220919202309193024091940250914D
:103DF000950260919602709197028091980290913D
:103E00009902A0909A02B0909B02C0909C02D09020
:103E10009D02E0909E02F0909F020091A0021091FE
:103E2000A1020E94C33509F100F1709192026091E4
:103E30009302509194024091950230919602209104
:103E40009702909198028091990270939A026093E0
:103E50009B0250939C0240939D0230939E022093BC
:103E60009F029093A0028093A10220919A02309128
:103E70009B0240919C0250919D0260919E02709124
:103E80009F028091A0029091A1022F3F324A4240AE
:103E900051056105710581059105A1F098F08FEF3D
:103EA00080939A0282EA80939B0282E080939C0234
:103EB00010929D0210929E0210929F021092A002F8
:103EC0001092A1020E940218CE0107960E94713042
:103ED0002C960FB6F894DEBF0FBECDBFDF91CF9109
:103EE0001F910F91FF90EF90DF90CF90BF90AF9018
:103EF0009F908F907F906F905F904F903F902F900A
:103F000008952F923F924F925F926F927F928F927D
:103F10009F92AF92BF92CF92DF92EF92FF920F9358
:103F20001F93CF93DF93CDB7DEB764970FB6F894A6
:103F3000DEBF0FBECDBF20919A0230919B0240910F
:103F40009C0250919D0260919E0270919F0280910F
:103F5000A0029091A102A0909202B0909302C09012
:103F60009402D0909502E0909602F0909702009112
:103F70009802109199020E94BA3529833A834B83A3
:103F80005C836D837E838F83988785ED95E00E94A7
:103F9000B30741E060E085ED95E00E94F30680EE16
:103FA00091E00E94530E41E060E085ED95E00E94B3
:103FB000F30667E971E085ED95E00E948A2E68E6D8
:103FC00071E0CE010F960E94DF3009811A812B81AA
:103FD0003C814D815E816F817885AA24A394CC2495
:103FE000C394E12CCE0109960E94E818BE01675FD8
:103FF0007F4FCE010F960E94CE31CE0109960E94CE
:104000007130BE01615F7F4F85ED95E00E94AF2E5C
:1040100041E06AE085ED95E00E94F30685ED95E0CC
:104020000E94BA070E94D02A2B013C018CE390E049
:104030000E94D6178C018A30910528F460E385ED43
:1040400095E00E94BF2E4AE050E0B80185ED95E072
:104050000E947E2FCE0101960E9477184C013CE30E
:10406000A32EB12CCA2CD12C0E94D02A6419750918
:1040700086099709603177428105910508F024C1CE
:10408000C6010E94D6177C0121E0B21659F0B21683
:1040900030F082E0B8120CC041E064E005C041E0BD
:1040A0006AE002C041E067E085ED95E00E94F3061A
:1040B000E016F106A9F00E94D02A2B013C01AAE0EB
:1040C000EA16F10428F460E385ED95E00E94BF2E26
:1040D0004AE050E0B70185ED95E00E947E2F870110
:1040E000B1E0BB1669F0BB1638F0E2E0BE120AC0C0
:1040F000D40111960C9306C0D40113960C9302C000
:10410000F40102830E943A13882319F08130D1F020
:10411000ABCFB394B3E0BB1659F0E1E0BE1649F063
:10412000BE1630F0F2E0BF1206C098E1A92E03C01F
:10413000B12C2CE3A22E0E94D02A2B013C010FEFC0
:1041400010E090CFD4011296FC9112971196AC908A
:104150002A2D30E040E050E060E070E080E090E048
:1041600004E00E947A35B12CC12CD12CE12CF12C29
:1041700000E010E00E94BA3559016A017B01E82F86
:10418000192F04E00E947A350E2F0E94BA3504E000
:104190000E947A35F22E032F1A012B013C016F2F5A
:1041A00070E080E090E02CE330E040E050E00E94DE
:1041B000F03459016A01E62EF72FE82F192F2F2D21
:1041C000302FA101B201C301FF2E0E2F0E94B13585
:1041D000F401A380B12CC12CD12CE12CF12C00E0F6
:1041E00010E00E94B13520939A0230939B024093D5
:1041F0009C0250939D0260939E0270939F02809355
:10420000A0029093A102A0909202B0909302C0905D
:104210009402D0909502E0909602F090970200915F
:1042200098021091990220919A0230919B0240913C
:104230009C0250919D0260919E0270919F0280911C
:10424000A0029091A1020E94B13520939A0230936E
:104250009B0240939C0250939D0260939E02709338
:104260009F028093A0029093A10220919A02309124
:104270009B0240919C0250919D0260919E02709120
:104280009F028091A0029091A1022F3F324A4240AA
:1042900051056105710581059105A1F098F08FEF39
:1042A00080939A0282EA80939B0282E080939C0230
:1042B00010929D0210929E0210929F021092A002F4
:1042C0001092A1020E940218CE010F960E94713036
:1042D00064960FB6F894DEBF0FBECDBFDF91CF91CD
:1042E0001F910F91FF90EF90DF90CF90BF90AF9014
:1042F0009F908F907F906F905F904F903F902F9006
:104300000895CF92DF92EF92FF92CF93C091A802CF
:1043100085ED95E00E94B30741E060E085ED95E012
:104320000E94F30681EF91E00E94530E41E068E0A5
:1043300085ED95E00E94F306CC2331F068E571E04D
:1043400085ED95E00E94BD2E41E068E085ED95E0A9
:104350000E94F30685ED95E00E94BA070E94D02ADC
:104360006B017C010E94D02A6C197D098E099F097E
:10437000603177428105910598F50E943A138823B0
:1043800059F0813079F7C093A802CF91FF90EF9058
:10439000DF90CF900C940218CF5FC23081F0CC2315
:1043A00071F0C130F9F66EE385ED95E00E94BF2E05
:1043B00041E068E085ED95E00E94F306CFCF6CE325
:1043C00085ED95E00E94BF2E41E068E085ED95E027
:1043D0000E94F3060E94D02A6B017C01C0E0C2CF8C
:1043E000CF91FF90EF90DF90CF90089585ED95E00D
:1043F0000E94B30741E060E085ED95E00E94F3067E
:104400006AE871E085ED95E00E948A2E8091A30212
:10441000882319F06AE571E002C061E671E085ED7C
:1044200095E00E94BD2E41E060E085ED95E00E94A0
:10443000F30685ED95E00C94BA0785ED95E00E94B2
:10444000B30741E060E085ED95E00E94F30669E77F
:1044500071E085ED95E00E948A2E41E069E085EDEE
:1044600095E00E94F3064091A4025091A50260914C
:10447000A6027091A70221E030E085ED95E00E9450
:104480006F30E091D505F091D6050190F081E02DD7
:104490006FED85ED95E0099566E485ED95E00E9468
:1044A000BF2E41E060E085ED95E00E94F30685EDCA
:1044B00095E00C94BA0785ED95E00E94B30741E0C2
:1044C00060E085ED95E00E94F30681EF91E00E94A7
:1044D000530E41E068E085ED95E00E94F30680917F
:1044E000A802882329F06EE385ED95E00E94BF2E97
:1044F00041E060E085ED95E00E94F30685ED95E0F2
:104500000C94BA0785ED95E00E94B30741E060E0A6
:1045100085ED95E00E94F30668E671E085ED95E093
:104520000E948A2E41E06DE085ED95E00E94F30641
:104530008091A902882319F069E671E002C06DE656
:1045400071E085ED95E00E94BD2E41E060E085EDD3
:1045500095E00E94F30685ED95E00C94BA07CF92A2
:10456000DF92EF92FF92CF938091A302C1E081117D
:10457000C0E085ED95E00E94B30741E060E085ED85
:1045800095E00E94F30682E092E00E94530E41E023
:10459000C13011F062E001C06CE085ED95E00E9451
:1045A000F30685ED95E00E94BA070E94D02A6B01C0
:1045B0007C010E94D02A6C197D098E099F09603107
:1045C00077428105910510F541E0C13011F062E0BC
:1045D00001C06CE085ED95E00E94F3060E943A135D
:1045E000882319F0813021F0E4CFC095C170DDCF70
:1045F000C13019F08093A30202C01092A302CF91A0
:10460000FF90EF90DF90CF900C940218CF91FF9025
:10461000EF90DF90CF900895CF92DF92EF92FF92CC
:10462000CF93C091A90285ED95E00E94B30741E0C8
:1046300060E085ED95E00E94F30682E092E00E9442
:10464000530ECC2329F0C13049F441E062E002C0AE
:1046500041E06CE085ED95E00E94F30685ED95E084
:104660000E94BA070E94D02A6B017C010E94D02AC6
:104670006C197D098E099F0960317742810591058A
:1046800048F5CC2329F0C13049F441E062E002C092
:1046900041E06CE085ED95E00E94F3060E943A133C
:1046A000882319F0813031F0E1CFCF5FC230D1F6ED
:1046B000C0E0D8CFCC2329F0C13061F4C093A90267
:1046C00002C01092A902CF91FF90EF90DF90CF909F
:1046D0000C940218CF91FF90EF90DF90CF90089547
:1046E0004F925F926F927F928F929F92AF92BF9202
:1046F000CF92DF92EF92FF92CF93DF9300D000D062
:10470000CDB7DEB78091A4029091A502A091A60238
:10471000B091A70289839A83AB83BC830E941D2238
:1047200041E069E085ED95E00E94F3060E94D02A01
:104730004B015C01412C512C4FE7642E43E4742E55
:104740000E94D02A681979098A099B096031774249
:104750008105910508F072C082E697E00E94D617A5
:10476000BC0180E090E00E944F3320E030E040E266
:1047700051E40E947C3220E030E040E850E40E94A6
:1047800013326B017C01A30192010E9478328823CD
:1047900069F1C092A402D092A502E092A602F09222
:1047A000A70221E030E0B701A60185ED95E00E9467
:1047B0006F30E091D505F091D6050190F081E02DA4
:1047C0006FED85ED95E0099561E771E085ED95E088
:1047D0000E94BD2E41E069E085ED95E00E94F30660
:1047E0000E94D02A4B015C01260137010E943A1336
:1047F0008823F9F0813009F0A3CF4092A4025092AF
:10480000A5026092A6027092A7020F900F900F90DF
:104810000F90DF91CF91FF90EF90DF90CF90BF90FE
:10482000AF909F908F907F906F905F904F900C947F
:1048300002180E94D02A4B015C0182CF89819A81A3
:10484000AB81BC818093A4029093A502A093A602A1
:10485000B093A7020F900F900F900F90DF91CF9120
:10486000FF90EF90DF90CF90BF90AF909F908F9090
:104870007F906F905F904F900895CF92DF92EF926C
:10488000FF92CF93DF930E94F6210E94D02A6B0102
:104890007C01C0E0D0E00E94D02A6C197D098E090D
:1048A0009F09603177428105910508F056C00E944A
:1048B0003A13882319F0813019F1EDCF2196C430D5
:1048C000D10511F4C0E0D0E00E94D02A6B017C0138
:1048D000C130D10579F02CF42097E9F60E94F62139
:1048E000DACFC230D10549F0C330D105A1F60E941C
:1048F0008222D1CF0E941D22CECF0E945B22CBCF3D
:104900000E94D02AC130D105C1F054F4CD2B29F535
:10491000DF91CF91FF90EF90DF90CF900C94AF227A
:10492000C230D10591F02397C1F4DF91CF91FF9070
:10493000EF90DF90CF900C940C23DF91CF91FF90FC
:10494000EF90DF90CF900C947023DF91CF91FF9088
:10495000EF90DF90CF900C948121DF91CF91FF9069
:10496000EF90DF90CF900895CF92DF92EF92FF9279
:10497000CF93DF930E94451C0E94D02A6B017C01DB
:10498000C0E0D0E00E94D02A6C197D098E099F09F1
:104990006031774281059105D0F50E943A13882352
:1049A00019F08130A1F0EECF2196C330D10549F046
:1049B000C130D10549F0C230D10521F70E94131D45
:1049C000E1CF0E94451CDCCF0E94A11CDBCFC1308F
:1049D000D10569F0C230D10591F0CD2BC1F4DF9142
:1049E000CF91FF90EF90DF90CF900C942D1DDF9131
:1049F000CF91FF90EF90DF90CF900C94811FDF91CB
:104A0000CF91FF90EF90DF90CF900C943D24DF91F9
:104A1000CF91FF90EF90DF90CF900895CF92DF92EB
:104A2000EF92FF92CF93DF9341E060E085ED95E058
:104A30000E94F3060E943A13992787FD90958F3FB5
:104A40002FEF920741F4DF91CF91FF90EF90DF902D
:104A5000CF900C94A414009709F0B8C08091C002C4
:104A6000823019F485E392E00DC08091C00281305C
:104A700019F484E292E006C08091C002811104C062
:104A800083E192E00E94530E82E090E00E94D617EC
:104A9000009719F0019759F01DC08091C002813034
:104AA00019F090F08230B1F441E061E00FC08091E4
:104AB000C002813031F040F0823061F441E06AE0C0
:104AC00005C041E06CE002C041E067E085ED95E0A3
:104AD0000E94F30685ED95E00E94BA070E94D02A55
:104AE0006B017C010E94D02A6C197D098E099F09F7
:104AF000603177428105910508F072C082E090E054
:104B00000E94D617EC01009721F08130910559F0F1
:104B10001DC08091C002813019F090F08230B1F454
:104B200041E061E00FC08091C002813031F040F07F
:104B3000823061F441E06AE005C041E06CE002C00F
:104B400041E067E085ED95E00E94F3060E943A138C
:104B5000882309F445C0813029F68091C002823053
:104B600019F485E392E00DC08091C002813019F400
:104B700084E292E006C08091C002811104C083E10A
:104B800092E00E94530E209719F02197B1F028C0AF
:104B90008091C002813029F038F0823009F580E040
:104BA00004C080E00E94211782E0DF91CF91FF9046
:104BB000EF90DF90CF900C9421178091C00281304C
:104BC00099F390F3823061F481E0EFCF019741F4E3
:104BD000DF91CF91FF90EF90DF90CF900C94B424B1
:104BE000DF91CF91FF90EF90DF90CF9008958F925B
:104BF000AF92CF92EF920F931F921F9283E08F9309
:104C000057E0852E66E0A62E75E0C72EE4E0EE2E76
:104C100000E021E042E067E285ED95E00E94820835
:104C20006AE087EC95E00E94640A67EC75E084EB2B
:104C300095E00E941D02E2E9F2E08CE3808311829C
:104C4000128213821482158216821782EAE9F2E038
:104C500088E7808311821282138214821582168261
:104C6000178281E08093A2021092A30280E090E07C
:104C7000ACE9B2E48093A4029093A502A093A602AB
:104C8000B093A7021092A8021092A9020F900F9061
:104C90000F900F91EF90CF90AF908F90089526E0F6
:104CA00040E950ED63E070E08BE496E00E94312D26
:104CB00062E082E00E94B22B62E08EE00E94B22BA2
:104CC00062E080E10E94B22B62E081E10E94B22B9F
:104CD00020E042E060E185ED95E00E94100985ED5D
:104CE00095E00E94D50685ED95E00E94EC0665ED05
:104CF00071E085ED95E00E948A2E41E060E085ED4F
:104D000095E00E94F30668EC71E085ED95E00E9465
:104D10008A2E60EA7FE080E090E00E94FF2A4EE564
:104D200052E060E085ED95E00E94C2074EE452E05B
:104D300061E085ED95E00E94C20746E452E062E042
:104D400085ED95E00E94C20746E552E063E085EDFF
:104D500095E00E94C20746E652E064E085ED95E0EA
:104D60000E94C2074EE652E065E085ED95E00E94A4
:104D7000C20746E752E066E085ED95E00E94C20773
:104D80004EE752E067E085ED95E00E94C2070E9481
:104D9000421842E050E064EE7DE080E00E940C2A80
:104DA00080E1809381001092800081E08093BA01BD
:104DB00080E490E19093BC018093BB0190938700C5
:104DC0008093860081E1809381006AE070E080E05A
:104DD00090E00E94FF2A1092C9028FE00E946C2B83
:104DE0009093EF058093EE058091A202882311F045
:104DF00082E001C080E00E94211742ED53E16AE0A9
:104E000070E080E090E00E948F050C94D705CF936E
:104E10008BE496E00E94672CC82FE0914B06F0913E
:104E20004C060190F081E02D6AEF8BE496E0099545
:104E3000C0FF04C0C370C093AA0202C01092AA02AD
:104E4000CF9108950E9462110E94D4198CEF9DE0C9
:104E5000909307018093060181E080936F000E9488
:104E60000E2510926F008BE496E00E944C2C029766
:104E70004CF08BE496E00E94672C8F3A910511F478
:104E80000C9407270895CF93DF93EC01E881F98113
:104E90000190F081E02DCE0109951816190644F411
:104EA000E881F9810684F785E02DCE010995EECFE2
:104EB000DF91CF910895FC018281938108950F9332
:104EC0001F93CF93DF9300D000D0CDB7DEB78C0116
:104ED00086E090E049835A836B837C830E94482E4E
:104EE000DC0115961C921E92149749815A816B81A0
:104EF0007C81FC014083518362837383D8011496C3
:104F00002D913C911597232B59F01696ED91FC911C
:104F100017979583848317969C938E93169705C055
:104F2000F8019583848397838683D80112968D91A7
:104F30009C911397019613969C938E9312971C96AF
:104F40001C9281E00F900F900F900F90DF91CF9106
:104F50001F910F9108950F931F93CF93DF9300D06C
:104F600000D0CDB7DEB78C01DC0112968D919C91FB
:104F70001397892B79F4ED91FC910480F581E02D54
:104F8000C8010F900F900F900F90DF91CF911F915C
:104F90000F91099486E090E049835A836B837C8368
:104FA0000E94482EF80124813581DC0115963C933E
:104FB0002E93149749815A816B817C81FC01408337
:104FC000518362837383D80115969C938E931497B3
:104FD00012968D919C911397019613969C938E93A4
:104FE00012971C961C9281E00F900F900F900F90DB
:104FF000DF91CF911F910F910895CF92DF92EF92A1
:10500000FF920F931F93CF93DF93EC018A819B81D3
:10501000181619064CF50197C1F0EC81FD81048149
:105020001581C080D180E280F380CF010E944A2E9A
:105030001D830C838A819B8101979B838A831C86B5
:105040005C2D4D2D3E2D2F2D13C0E881F981048458
:10505000F585E02DCE01DF91CF911F910F91FF904B
:10506000EF90DF90CF90099450E040E030E020E0F6
:10507000652F742F832F922FDF91CF911F910F9166
:10508000FF90EF90DF90CF900895FC01A481B5814F
:105090008485882341F022853385621773071CF0CD
:1050A000A085B1850BC020E030E008C01097A1F0CA
:1050B00014960D90BC91A02D2F5F3F4F26173707F8
:1050C000ACF32617370741F481E0848733872287C2
:1050D000B187A087CD01089580E090E00895CF9238
:1050E000DF92EF92FF920F931F93CF93DF9300D045
:1050F00000D0CDB7DEB76C017B01DC0112968D913B
:105100009C9113976817790734F0ED91FC91048016
:10511000F581E02D09C061157105B1F4D601ED915D
:10512000FC910680F781E02DBA01A901C6010F901C
:105130000F900F900F90DF91CF911F910F91FF90E3
:10514000EF90DF90CF90099486E090E029833A8336
:105150004B835C830E94482E8C01FC0110821182DB
:105160001282138215821482B70161507109C6013F
:105170000E94452829813A814B815C81D8012D9379
:105180003D934D935C931397FC01248135811596D3
:105190003C932E93149715830483D60112968D9118
:1051A0009C911397019613969C938E9312971C963D
:1051B0001C9281E00F900F900F900F90DF91CF9194
:1051C0001F910F91FF90EF90DF90CF9008950E9474
:1051D0004528009731F0FC016081718182819381C3
:1051E000089560E070E0CB010895CF92DF92EF92D6
:1051F000FF920F931F93CF93DF93EC016A817B8122
:1052000016161706C4F51C866130710501F162504F
:1052100071090E9445288C01DC011496ED91FC91E6
:105220001597C080D180E280F380CF010E944A2E82
:10523000F801158214821F830E838A819B81019756
:105240009B838A835C2D4D2D3E2D2F2D18C0EC8124
:10525000FD81E080F18002811381CF010E944A2EFE
:105260001D821C821F821E821B821A825E2D4F2D80
:10527000302F212F04C050E040E030E020E0652FC7
:10528000742F832F922FDF91CF911F910F91FF9059
:10529000EF90DF90CF900895CF93DF9300D000D0B0
:1052A000CDB7DEB777FD19C0DC011296ED91FC9108
:1052B00013976E177F078CF429833A834B835C83A3
:1052C0000E94452829813A814B815C81FC01208321
:1052D00031834283538381E001C080E00F900F90BF
:1052E0000F900F90DF91CF910895EF92FF920F935F
:1052F0001F93CF93DF93EC0177FD41C08A819B819F
:1053000068177907E4F56115710531F4E881F981D1
:105310000684F785E02D09C001976817790769F4BD
:10532000E881F9810484F585E02DCE01DF91CF91EC
:105330001F910F91FF90EF90099461507109CE0178
:105340000E944528DC011496ED91FC911597E080B0
:10535000F180028113812481358115963C932E932F
:105360001497CF010E944A2E8A819B8101979B83CB
:105370008A831C865E2D4F2D302F212F04C050E0D4
:1053800040E030E020E0652F742F832F922FDF91D3
:10539000CF911F910F91FF90EF90089589E791E0D1
:1053A000909332068093310610923606109235069D
:1053B0001092380610923706109234061092330677
:1053C00010923A061092390610923C0610923B0653
:1053D00010923D06089589E791E0909332068093FC
:1053E00031068091350690913606009751F0FC0108
:1053F0002481358130933606209335060E944A2E4B
:10540000F0CF1092380610923706109234061092A0
:10541000330610923D0608958230E8F4E82FF0E05C
:10542000EE0FFF1FE25CF94F71836083813041F022
:10543000809169008C7F842B80936900E89A08959D
:1054400080916900440F551F440F551F837F842BA3
:1054500080936900E99A08951F920F920FB60F92F8
:1054600011242F933F934F935F936F937F938F9369
:105470009F93AF93BF93EF93FF9380913E069091DC
:105480003F06892B29F0E0913E06F0913F060995F1
:10549000FF91EF91BF91AF919F918F917F916F910C
:1054A0005F914F913F912F910F900FBE0F901F90E2
:1054B00018951F920F920FB60F9211242F933F93BE
:1054C0004F935F936F937F938F939F93AF93BF930C
:1054D000EF93FF938091400690914106892B29F02C
:1054E000E0914006F09141060995FF91EF91BF913F
:1054F000AF919F918F917F916F915F914F913F916C
:105500002F910F900FBE0F901F9018951F920F9222
:105510000FB60F9211242F933F938F939F93AF93C6
:10552000BF938091430690914406A0914506B091A7
:1055300046063091420623E0230F2D3720F40196D2
:10554000A11DB11D05C026E8230F0296A11DB11DA6
:10555000209342068093430690934406A093450609
:10556000B09346068091470690914806A09149065F
:10557000B0914A060196A11DB11D809347069093F4
:105580004806A0934906B0934A06BF91AF919F91F8
:105590008F913F912F910F900FBE0F901F901895F4
:1055A0002FB7F894609143067091440680914506A8
:1055B000909146062FBF08953FB7F8948091470613
:1055C00090914806A0914906B0914A0626B5A89B3D
:1055D00005C02F3F19F00196A11DB11D3FBF6627E1
:1055E000782F892F9A2F620F711D811D911D42E026
:1055F000660F771F881F991F4A95D1F70895CF929C
:10560000DF92EF92FF92CF93DF936B017C010E94B8
:10561000DC2AEB01C114D104E104F10489F00E94F9
:1056200012320E94DC2A6C1B7D0B683E734090F3A3
:1056300081E0C81AD108E108F108C851DC4FEACF6F
:10564000DF91CF91FF90EF90DF90CF900895019779
:1056500039F0880F991F880F991F02970197F1F76A
:105660000895789484B5826084BD84B5816084BDDA
:1056700085B5826085BD85B5816085BDEEE6F0E0CB
:10568000808181608083E1E8F0E010828081826027
:105690008083808181608083E0E8F0E080818160A8
:1056A0008083E1EBF0E0808184608083E0EBF0E0D8
:1056B000808181608083EAE7F0E08081846080837C
:1056C0008081826080838081816080838081806826
:1056D00080831092C10008958E3008F08E5087703C
:1056E0002091080190E4299F90011124822B80933E
:1056F0007C0080917A00806480937A0080917A00A7
:1057000086FDFCCF809178002091790090E0922B6B
:105710000895833081F028F4813099F08230A1F02F
:1057200008958730A9F08830B9F08430D1F48091A1
:1057300080008F7D03C0809180008F7780938000F0
:10574000089584B58F7702C084B58F7D84BD089598
:105750008091B0008F7703C08091B0008F7D8093DF
:10576000B0000895CF93DF9390E0FC01E656FD4F23
:105770002491FC01E255FD4F8491882349F190E08A
:10578000880F991FFC01EA52FD4FA591B4918453F3
:105790009D4FFC01C591D4919FB7611108C0F89449
:1057A0008C91209582238C93888182230AC0623059
:1057B00051F4F8948C91322F309583238C93888107
:1057C000822B888304C0F8948C91822B8C939FBF8A
:1057D000DF91CF9108950F931F93CF93DF931F9283
:1057E000CDB7DEB7282F30E0F901EA57FD4F84919D
:1057F000F901E656FD4F1491F901E255FD4F049170
:105800000023C9F0882321F069830E94892B6981D4
:10581000E02FF0E0EE0FFF1FE453FD4FA591B49190
:105820009FB7F8948C91611103C01095812301C03A
:10583000812B8C939FBF0F90DF91CF911F910F9180
:105840000895CF93DF93282F30E0F901EA57FD4FF9
:105850008491F901E656FD4FD491F901E255FD4FCF
:10586000C491CC2391F081110E94892BEC2FF0E0A0
:10587000EE0FFF1FEE53FD4FA591B4912C912D23F8
:1058800081E090E021F480E002C080E090E0DF91D0
:10589000CF9108950E941038FC01818D228D90E0F7
:1058A000805C9F4F821B910960E470E00E94BA34D3
:1058B0000895FC01918D828D981731F0828DE80F4B
:1058C000F11D858D90E008958FEF9FEF0895FC0105
:1058D000918D828D981761F0828DDF01A80FB11D27
:1058E0005D968C91928D9F5F9F73928F90E008954B
:1058F0008FEF9FEF08958BEE9DE2892B49F080E0BA
:1059000090E0892B29F00E94EB2D81110C9400006E
:105910000895FC01848DDF01A80FB11DA35ABF4F6C
:105920002C91848D90E001968F739927848FA6899E
:10593000B7892C93A089B1898C9180648C93938DC5
:10594000848D981306C00288F389E02D80818F7DB5
:1059500080830895CF93DF93EC01888D8823C9F06D
:10596000EA89FB89808185FD05C0A889B9898C9168
:1059700086FD0FC00FB607FCF5CF808185FFF2CF03
:10598000A889B9898C9185FFEDCFCE010E94892C21
:10599000E7CFDF91CF910895CF92DF92FF920F93DF
:1059A0001F93CF93DF931F92CDB7DEB76C01DC015D
:1059B0005B969C915B975C968C915C97981307C063
:1059C0005096ED91FC915197808185FD32C0F60192
:1059D000038D10E00F5F1F4F0F731127F02EF6019C
:1059E000848DF81211C00FB607FCF9CFD60150967E
:1059F000ED91FC915197808185FFF1CFC6016983BC
:105A00000E94892C6981EBCF838DE80FF11DE35A49
:105A1000FF4F6083D6015B960C935B975296ED9196
:105A2000FC91539780818062808381E058968C93AB
:105A30000DC0D6015696ED91FC9157976083509614
:105A4000ED91FC91519780818064808381E090E0AA
:105A50000F90DF91CF911F910F91FF90DF90CF902A
:105A60000895BF92CF92DF92EF92FF92CF93DF9390
:105A7000EC016A017B01B22EE889F98982E080831A
:105A8000411581EE580761057105A1F060E079E0EC
:105A90008DE390E0A70196010E94CE342150310998
:105AA000410951095695479537952795211580E16C
:105AB000380798F0E889F989108260E874E88EE187
:105AC00090E0A70196010E94CE342150310941098E
:105AD00051095695479537952795EC85FD85308377
